{
  "contractName": "PixelCoin",
  "abi": [
    {
      "constant": true,
      "inputs": [
        {
          "name": "interfaceId",
          "type": "bytes4"
        }
      ],
      "name": "supportsInterface",
      "outputs": [
        {
          "name": "",
          "type": "bool"
        }
      ],
      "payable": false,
      "stateMutability": "view",
      "type": "function"
    },
    {
      "constant": true,
      "inputs": [],
      "name": "name",
      "outputs": [
        {
          "name": "",
          "type": "string"
        }
      ],
      "payable": false,
      "stateMutability": "view",
      "type": "function"
    },
    {
      "constant": true,
      "inputs": [
        {
          "name": "tokenId",
          "type": "uint256"
        }
      ],
      "name": "getApproved",
      "outputs": [
        {
          "name": "",
          "type": "address"
        }
      ],
      "payable": false,
      "stateMutability": "view",
      "type": "function"
    },
    {
      "constant": false,
      "inputs": [
        {
          "name": "to",
          "type": "address"
        },
        {
          "name": "tokenId",
          "type": "uint256"
        }
      ],
      "name": "approve",
      "outputs": [],
      "payable": false,
      "stateMutability": "nonpayable",
      "type": "function"
    },
    {
      "constant": true,
      "inputs": [
        {
          "name": "",
          "type": "string"
        },
        {
          "name": "",
          "type": "uint256"
        }
      ],
      "name": "pictureToPixels",
      "outputs": [
        {
          "name": "",
          "type": "uint256"
        }
      ],
      "payable": false,
      "stateMutability": "view",
      "type": "function"
    },
    {
      "constant": true,
      "inputs": [],
      "name": "totalSupply",
      "outputs": [
        {
          "name": "",
          "type": "uint256"
        }
      ],
      "payable": false,
      "stateMutability": "view",
      "type": "function"
    },
    {
      "constant": false,
      "inputs": [
        {
          "name": "from",
          "type": "address"
        },
        {
          "name": "to",
          "type": "address"
        },
        {
          "name": "tokenId",
          "type": "uint256"
        }
      ],
      "name": "transferFrom",
      "outputs": [],
      "payable": false,
      "stateMutability": "nonpayable",
      "type": "function"
    },
    {
      "constant": true,
      "inputs": [
        {
          "name": "owner",
          "type": "address"
        },
        {
          "name": "index",
          "type": "uint256"
        }
      ],
      "name": "tokenOfOwnerByIndex",
      "outputs": [
        {
          "name": "",
          "type": "uint256"
        }
      ],
      "payable": false,
      "stateMutability": "view",
      "type": "function"
    },
    {
      "constant": false,
      "inputs": [
        {
          "name": "to",
          "type": "address"
        },
        {
          "name": "tokenId",
          "type": "uint256"
        }
      ],
      "name": "mint",
      "outputs": [
        {
          "name": "",
          "type": "bool"
        }
      ],
      "payable": false,
      "stateMutability": "nonpayable",
      "type": "function"
    },
    {
      "constant": false,
      "inputs": [
        {
          "name": "from",
          "type": "address"
        },
        {
          "name": "to",
          "type": "address"
        },
        {
          "name": "tokenId",
          "type": "uint256"
        }
      ],
      "name": "safeTransferFrom",
      "outputs": [],
      "payable": false,
      "stateMutability": "nonpayable",
      "type": "function"
    },
    {
      "constant": true,
      "inputs": [],
      "name": "last_completed_migration",
      "outputs": [
        {
          "name": "",
          "type": "uint256"
        }
      ],
      "payable": false,
      "stateMutability": "view",
      "type": "function"
    },
    {
      "constant": true,
      "inputs": [
        {
          "name": "",
          "type": "uint256"
        }
      ],
      "name": "pictures",
      "outputs": [
        {
          "name": "",
          "type": "string"
        }
      ],
      "payable": false,
      "stateMutability": "view",
      "type": "function"
    },
    {
      "constant": true,
      "inputs": [
        {
          "name": "index",
          "type": "uint256"
        }
      ],
      "name": "tokenByIndex",
      "outputs": [
        {
          "name": "",
          "type": "uint256"
        }
      ],
      "payable": false,
      "stateMutability": "view",
      "type": "function"
    },
    {
      "constant": true,
      "inputs": [
        {
          "name": "tokenId",
          "type": "uint256"
        }
      ],
      "name": "ownerOf",
      "outputs": [
        {
          "name": "",
          "type": "address"
        }
      ],
      "payable": false,
      "stateMutability": "view",
      "type": "function"
    },
    {
      "constant": true,
      "inputs": [],
      "name": "lengthOfPictureArray",
      "outputs": [
        {
          "name": "",
          "type": "uint256"
        }
      ],
      "payable": false,
      "stateMutability": "view",
      "type": "function"
    },
    {
      "constant": true,
      "inputs": [
        {
          "name": "owner",
          "type": "address"
        }
      ],
      "name": "balanceOf",
      "outputs": [
        {
          "name": "",
          "type": "uint256"
        }
      ],
      "payable": false,
      "stateMutability": "view",
      "type": "function"
    },
    {
      "constant": true,
      "inputs": [],
      "name": "owner",
      "outputs": [
        {
          "name": "",
          "type": "address"
        }
      ],
      "payable": false,
      "stateMutability": "view",
      "type": "function"
    },
    {
      "constant": true,
      "inputs": [],
      "name": "symbol",
      "outputs": [
        {
          "name": "",
          "type": "string"
        }
      ],
      "payable": false,
      "stateMutability": "view",
      "type": "function"
    },
    {
      "constant": false,
      "inputs": [
        {
          "name": "account",
          "type": "address"
        }
      ],
      "name": "addMinter",
      "outputs": [],
      "payable": false,
      "stateMutability": "nonpayable",
      "type": "function"
    },
    {
      "constant": false,
      "inputs": [],
      "name": "renounceMinter",
      "outputs": [],
      "payable": false,
      "stateMutability": "nonpayable",
      "type": "function"
    },
    {
      "constant": true,
      "inputs": [
        {
          "name": "",
          "type": "address"
        },
        {
          "name": "",
          "type": "uint256"
        }
      ],
      "name": "ownerToPixels",
      "outputs": [
        {
          "name": "picture",
          "type": "string"
        }
      ],
      "payable": false,
      "stateMutability": "view",
      "type": "function"
    },
    {
      "constant": false,
      "inputs": [
        {
          "name": "to",
          "type": "address"
        },
        {
          "name": "approved",
          "type": "bool"
        }
      ],
      "name": "setApprovalForAll",
      "outputs": [],
      "payable": false,
      "stateMutability": "nonpayable",
      "type": "function"
    },
    {
      "constant": true,
      "inputs": [
        {
          "name": "account",
          "type": "address"
        }
      ],
      "name": "isMinter",
      "outputs": [
        {
          "name": "",
          "type": "bool"
        }
      ],
      "payable": false,
      "stateMutability": "view",
      "type": "function"
    },
    {
      "constant": false,
      "inputs": [
        {
          "name": "from",
          "type": "address"
        },
        {
          "name": "to",
          "type": "address"
        },
        {
          "name": "tokenId",
          "type": "uint256"
        },
        {
          "name": "_data",
          "type": "bytes"
        }
      ],
      "name": "safeTransferFrom",
      "outputs": [],
      "payable": false,
      "stateMutability": "nonpayable",
      "type": "function"
    },
    {
      "constant": true,
      "inputs": [
        {
          "name": "tokenId",
          "type": "uint256"
        }
      ],
      "name": "tokenURI",
      "outputs": [
        {
          "name": "",
          "type": "string"
        }
      ],
      "payable": false,
      "stateMutability": "view",
      "type": "function"
    },
    {
      "constant": true,
      "inputs": [
        {
          "name": "owner",
          "type": "address"
        },
        {
          "name": "operator",
          "type": "address"
        }
      ],
      "name": "isApprovedForAll",
      "outputs": [
        {
          "name": "",
          "type": "bool"
        }
      ],
      "payable": false,
      "stateMutability": "view",
      "type": "function"
    },
    {
      "inputs": [],
      "payable": false,
      "stateMutability": "nonpayable",
      "type": "constructor"
    },
    {
      "anonymous": false,
      "inputs": [
        {
          "indexed": false,
          "name": "_xy",
          "type": "uint16[2]"
        },
        {
          "indexed": false,
          "name": "_picture",
          "type": "string"
        }
      ],
      "name": "NewPixelRevealed",
      "type": "event"
    },
    {
      "anonymous": false,
      "inputs": [
        {
          "indexed": true,
          "name": "account",
          "type": "address"
        }
      ],
      "name": "MinterAdded",
      "type": "event"
    },
    {
      "anonymous": false,
      "inputs": [
        {
          "indexed": true,
          "name": "account",
          "type": "address"
        }
      ],
      "name": "MinterRemoved",
      "type": "event"
    },
    {
      "anonymous": false,
      "inputs": [
        {
          "indexed": true,
          "name": "from",
          "type": "address"
        },
        {
          "indexed": true,
          "name": "to",
          "type": "address"
        },
        {
          "indexed": true,
          "name": "tokenId",
          "type": "uint256"
        }
      ],
      "name": "Transfer",
      "type": "event"
    },
    {
      "anonymous": false,
      "inputs": [
        {
          "indexed": true,
          "name": "owner",
          "type": "address"
        },
        {
          "indexed": true,
          "name": "approved",
          "type": "address"
        },
        {
          "indexed": true,
          "name": "tokenId",
          "type": "uint256"
        }
      ],
      "name": "Approval",
      "type": "event"
    },
    {
      "anonymous": false,
      "inputs": [
        {
          "indexed": true,
          "name": "owner",
          "type": "address"
        },
        {
          "indexed": true,
          "name": "operator",
          "type": "address"
        },
        {
          "indexed": false,
          "name": "approved",
          "type": "bool"
        }
      ],
      "name": "ApprovalForAll",
      "type": "event"
    },
    {
      "constant": false,
      "inputs": [
        {
          "name": "completed",
          "type": "uint256"
        }
      ],
      "name": "setCompleted",
      "outputs": [],
      "payable": false,
      "stateMutability": "nonpayable",
      "type": "function"
    },
    {
      "constant": false,
      "inputs": [
        {
          "name": "_picture",
          "type": "string"
        }
      ],
      "name": "buyUnownedPixel",
      "outputs": [],
      "payable": true,
      "stateMutability": "payable",
      "type": "function"
    },
    {
      "constant": true,
      "inputs": [],
      "name": "showPixels",
      "outputs": [
        {
          "components": [
            {
              "name": "xy",
              "type": "uint16[2]"
            },
            {
              "name": "picture",
              "type": "string"
            }
          ],
          "name": "",
          "type": "tuple[]"
        }
      ],
      "payable": false,
      "stateMutability": "view",
      "type": "function"
    },
    {
      "constant": false,
      "inputs": [
        {
          "name": "_name",
          "type": "string"
        }
      ],
      "name": "addPictureToArrayOfPictures",
      "outputs": [],
      "payable": false,
      "stateMutability": "nonpayable",
      "type": "function"
    }
  ],
  "bytecode": "0x6080604052610258600f5560036011553480156200001c57600080fd5b506040518060400160405280600981526020017f506978656c436f696e00000000000000000000000000000000000000000000008152506040518060400160405280600981526020017f506978656c436f696e00000000000000000000000000000000000000000000008152508181620000a36301ffc9a760e01b6200017960201b60201c565b620000bb6380ac58cd60e01b6200017960201b60201c565b620000d363780e9d6360e01b6200017960201b60201c565b8160099080519060200190620000eb92919062000430565b5080600a90805190602001906200010492919062000430565b506200011d635b5e139f60e01b6200017960201b60201c565b5050505062000132336200025160201b60201c565b33600d60006101000a81548173ffffffffffffffffffffffffffffffffffffffff021916908373ffffffffffffffffffffffffffffffffffffffff16021790555062000642565b63ffffffff60e01b817bffffffffffffffffffffffffffffffffffffffffffffffffffffffff19161415620001e5576040517f08c379a0000000000000000000000000000000000000000000000000000000008152600401620001dc90620005ed565b60405180910390fd5b6001600080837bffffffffffffffffffffffffffffffffffffffffffffffffffffffff19167bffffffffffffffffffffffffffffffffffffffffffffffffffffffff1916815260200190815260200160002060006101000a81548160ff02191690831515021790555050565b6200026c81600c620002b260201b620028001790919060201c565b8073ffffffffffffffffffffffffffffffffffffffff167f6ae172837ea30b801fbfcdd4108aa1d5bf8ff775444fd70256b44e6bf3dfc3f660405160405180910390a250565b620002c482826200036560201b60201c565b1562000307576040517f08c379a0000000000000000000000000000000000000000000000000000000008152600401620002fe90620005cb565b60405180910390fd5b60018260000160008373ffffffffffffffffffffffffffffffffffffffff1673ffffffffffffffffffffffffffffffffffffffff16815260200190815260200160002060006101000a81548160ff0219169083151502179055505050565b60008073ffffffffffffffffffffffffffffffffffffffff168273ffffffffffffffffffffffffffffffffffffffff161415620003d9576040517f08c379a0000000000000000000000000000000000000000000000000000000008152600401620003d0906200060f565b60405180910390fd5b8260000160008373ffffffffffffffffffffffffffffffffffffffff1673ffffffffffffffffffffffffffffffffffffffff16815260200190815260200160002060009054906101000a900460ff16905092915050565b828054600181600116156101000203166002900490600052602060002090601f016020900481019282601f106200047357805160ff1916838001178555620004a4565b82800160010185558215620004a4579182015b82811115620004a357825182559160200191906001019062000486565b5b509050620004b39190620004b7565b5090565b620004dc91905b80821115620004d8576000816000905550600101620004be565b5090565b90565b6000620004ee601f8362000631565b91507f526f6c65733a206163636f756e7420616c72656164792068617320726f6c65006000830152602082019050919050565b600062000530601c8362000631565b91507f4552433136353a20696e76616c696420696e74657266616365206964000000006000830152602082019050919050565b60006200057260228362000631565b91507f526f6c65733a206163636f756e7420697320746865207a65726f20616464726560008301527f73730000000000000000000000000000000000000000000000000000000000006020830152604082019050919050565b60006020820190508181036000830152620005e681620004df565b9050919050565b60006020820190508181036000830152620006088162000521565b9050919050565b600060208201905081810360008301526200062a8162000563565b9050919050565b600082825260208201905092915050565b6142cd80620006526000396000f3fe6080604052600436106101cd5760003560e01c80636352211e116100f75780639ae8e96311610095578063b88d4fde11610064578063b88d4fde146106c7578063c87b56dd146106f0578063e985e9c51461072d578063fdacd5761461076a576101cd565b80639ae8e963146105f95780639fb7a1f214610636578063a22cb46514610661578063aa271e1a1461068a576101cd565b80638da5cb5b116100d15780638da5cb5b1461056357806395d89b411461058e578063983b2d56146105b957806398650275146105e2576101cd565b80636352211e146104be5780636aff7b8f146104fb57806370a0823114610526576101cd565b806323b872dd1161016f57806342842e0e1161013e57806342842e0e146103f0578063445df0ac146104195780634a291142146104445780634f6ccce714610481576101cd565b806323b872dd146103245780632a1d1d3f1461034d5780632f745c591461037657806340c10f19146103b3576101cd565b8063095ea7b3116101ab578063095ea7b3146102775780630f075caa146102a057806318160ddd146102dd5780631f32fc6414610308576101cd565b806301ffc9a7146101d257806306fdde031461020f578063081812fc1461023a575b600080fd5b3480156101de57600080fd5b506101f960048036036101f49190810190612fa6565b610793565b6040516102069190613c52565b60405180910390f35b34801561021b57600080fd5b506102246107fa565b6040516102319190613c8f565b60405180910390f35b34801561024657600080fd5b50610261600480360361025c919081019061308d565b61089c565b60405161026e9190613b99565b60405180910390f35b34801561028357600080fd5b5061029e60048036036102999190810190612f6a565b610921565b005b3480156102ac57600080fd5b506102c760048036036102c29190810190613039565b610ace565b6040516102d49190613f71565b60405180910390f35b3480156102e957600080fd5b506102f2610b12565b6040516102ff9190613f71565b60405180910390f35b610322600480360361031d9190810190612ff8565b610b1f565b005b34801561033057600080fd5b5061034b60048036036103469190810190612e64565b610da8565b005b34801561035957600080fd5b50610374600480360361036f9190810190612ff8565b610e01565b005b34801561038257600080fd5b5061039d60048036036103989190810190612f6a565b610ff5565b6040516103aa9190613f71565b60405180910390f35b3480156103bf57600080fd5b506103da60048036036103d59190810190612f6a565b61109e565b6040516103e79190613c52565b60405180910390f35b3480156103fc57600080fd5b5061041760048036036104129190810190612e64565b6110fc565b005b34801561042557600080fd5b5061042e61111c565b60405161043b9190613f71565b60405180910390f35b34801561045057600080fd5b5061046b6004803603610466919081019061308d565b611122565b6040516104789190613c6d565b60405180910390f35b34801561048d57600080fd5b506104a860048036036104a3919081019061308d565b6111db565b6040516104b59190613f71565b60405180910390f35b3480156104ca57600080fd5b506104e560048036036104e0919081019061308d565b611245565b6040516104f29190613b99565b60405180910390f35b34801561050757600080fd5b506105106112f7565b60405161051d9190613f71565b60405180910390f35b34801561053257600080fd5b5061054d60048036036105489190810190612dff565b6112fd565b60405161055a9190613f71565b60405180910390f35b34801561056f57600080fd5b506105786113bc565b6040516105859190613b99565b60405180910390f35b34801561059a57600080fd5b506105a36113e2565b6040516105b09190613c8f565b60405180910390f35b3480156105c557600080fd5b506105e060048036036105db9190810190612dff565b611484565b005b3480156105ee57600080fd5b506105f76114d8565b005b34801561060557600080fd5b50610620600480360361061b9190810190612f6a565b6114e3565b60405161062d9190613c6d565b60405180910390f35b34801561064257600080fd5b5061064b6115b3565b6040516106589190613c00565b60405180910390f35b34801561066d57600080fd5b5061068860048036036106839190810190612f2e565b611763565b005b34801561069657600080fd5b506106b160048036036106ac9190810190612dff565b6118cf565b6040516106be9190613c52565b60405180910390f35b3480156106d357600080fd5b506106ee60048036036106e99190810190612eb3565b6118ec565b005b3480156106fc57600080fd5b506107176004803603610712919081019061308d565b611948565b6040516107249190613c8f565b60405180910390f35b34801561073957600080fd5b50610754600480360361074f9190810190612e28565b611a45565b6040516107619190613c52565b60405180910390f35b34801561077657600080fd5b50610791600480360361078c919081019061308d565b611ad9565b005b6000806000837bffffffffffffffffffffffffffffffffffffffffffffffffffffffff19167bffffffffffffffffffffffffffffffffffffffffffffffffffffffff1916815260200190815260200160002060009054906101000a900460ff169050919050565b606060098054600181600116156101000203166002900480601f0160208091040260200160405190810160405280929190818152602001828054600181600116156101000203166002900480156108925780601f1061086757610100808354040283529160200191610892565b820191906000526020600020905b81548152906001019060200180831161087557829003601f168201915b5050505050905090565b60006108a782611b3a565b6108e6576040517f08c379a00000000000000000000000000000000000000000000000000000000081526004016108dd90613e91565b60405180910390fd5b6002600083815260200190815260200160002060009054906101000a900473ffffffffffffffffffffffffffffffffffffffff169050919050565b600061092c82611245565b90508073ffffffffffffffffffffffffffffffffffffffff168373ffffffffffffffffffffffffffffffffffffffff16141561099d576040517f08c379a000000000000000000000000000000000000000000000000000000000815260040161099490613f11565b60405180910390fd5b8073ffffffffffffffffffffffffffffffffffffffff163373ffffffffffffffffffffffffffffffffffffffff1614806109dd57506109dc8133611a45565b5b610a1c576040517f08c379a0000000000000000000000000000000000000000000000000000000008152600401610a1390613dd1565b60405180910390fd5b826002600084815260200190815260200160002060006101000a81548173ffffffffffffffffffffffffffffffffffffffff021916908373ffffffffffffffffffffffffffffffffffffffff160217905550818373ffffffffffffffffffffffffffffffffffffffff168273ffffffffffffffffffffffffffffffffffffffff167f8c5be1e5ebec7d5bd14f71427d1e84f3dd0314c0f7b2291e5b200ac8c7c3b92560405160405180910390a4505050565b6012828051602081018201805184825260208301602085012081835280955050505050508181548110610afd57fe5b90600052602060002001600091509150505481565b6000600780549050905090565b6003601460003373ffffffffffffffffffffffffffffffffffffffff1673ffffffffffffffffffffffffffffffffffffffff168152602001908152602001600020600081548110610b6c57fe5b90600052602060002001541080610bdc57504262015180601460003373ffffffffffffffffffffffffffffffffffffffff1673ffffffffffffffffffffffffffffffffffffffff168152602001908152602001600020600181548110610bce57fe5b906000526020600020015401105b610be557600080fd5b6000610bef612a59565b604051806040016040528061012c61ffff16815260200161012c61ffff168152509050610c1c8184611bac565b4262015180601460003373ffffffffffffffffffffffffffffffffffffffff1673ffffffffffffffffffffffffffffffffffffffff168152602001908152602001600020600181548110610c6c57fe5b9060005260206000200154011015610ced57610ce76001601460003373ffffffffffffffffffffffffffffffffffffffff1673ffffffffffffffffffffffffffffffffffffffff168152602001908152602001600020600081548110610cce57fe5b9060005260206000200154611cff90919063ffffffff16565b50610da3565b42601460003373ffffffffffffffffffffffffffffffffffffffff1673ffffffffffffffffffffffffffffffffffffffff168152602001908152602001600020600181548110610d3957fe5b90600052602060002001819055506001601460003373ffffffffffffffffffffffffffffffffffffffff1673ffffffffffffffffffffffffffffffffffffffff168152602001908152602001600020600081548110610d9457fe5b90600052602060002001819055505b505050565b610db23382611d54565b610df1576040517f08c379a0000000000000000000000000000000000000000000000000000000008152600401610de890613f31565b60405180910390fd5b610dfc838383611e32565b505050565b600d60009054906101000a900473ffffffffffffffffffffffffffffffffffffffff1673ffffffffffffffffffffffffffffffffffffffff163373ffffffffffffffffffffffffffffffffffffffff161415610ff257600060019050606060008090505b601154811015610fee5760108181548110610e7c57fe5b906000526020600020018054600181600116156101000203166002900480601f016020809104026020016040519081016040528092919081815260200182805460018160011615610100020316600290048015610f1a5780601f10610eef57610100808354040283529160200191610f1a565b820191906000526020600020905b815481529060010190602001808311610efd57829003601f168201915b5050505050915083604051602001610f329190613b82565b6040516020818303038152906040528051906020012082604051602001610f599190613b82565b604051602081830303815290604052805190602001201415610f7a57600092505b6001151583151514610f8b57600080fd5b6010849080600181540180825580915050906001820390600052602060002001600090919290919091509080519060200190610fc8929190612a7b565b5050610fe06001601154611cff90919063ffffffff16565b508080600101915050610e65565b5050505b50565b6000611000836112fd565b8210611041576040517f08c379a000000000000000000000000000000000000000000000000000000000815260040161103890613cd1565b60405180910390fd5b600560008473ffffffffffffffffffffffffffffffffffffffff1673ffffffffffffffffffffffffffffffffffffffff168152602001908152602001600020828154811061108b57fe5b9060005260206000200154905092915050565b60006110a9336118cf565b6110e8576040517f08c379a00000000000000000000000000000000000000000000000000000000081526004016110df90613e31565b60405180910390fd5b6110f28383611e56565b6001905092915050565b611117838383604051806020016040528060008152506118ec565b505050565b600e5481565b6010818154811061112f57fe5b906000526020600020016000915090508054600181600116156101000203166002900480601f0160208091040260200160405190810160405280929190818152602001828054600181600116156101000203166002900480156111d35780601f106111a8576101008083540402835291602001916111d3565b820191906000526020600020905b8154815290600101906020018083116111b657829003601f168201915b505050505081565b60006111e5610b12565b8210611226576040517f08c379a000000000000000000000000000000000000000000000000000000000815260040161121d90613f51565b60405180910390fd5b6007828154811061123357fe5b90600052602060002001549050919050565b6000806001600084815260200190815260200160002060009054906101000a900473ffffffffffffffffffffffffffffffffffffffff169050600073ffffffffffffffffffffffffffffffffffffffff168173ffffffffffffffffffffffffffffffffffffffff1614156112ee576040517f08c379a00000000000000000000000000000000000000000000000000000000081526004016112e590613e11565b60405180910390fd5b80915050919050565b60115481565b60008073ffffffffffffffffffffffffffffffffffffffff168273ffffffffffffffffffffffffffffffffffffffff16141561136e576040517f08c379a000000000000000000000000000000000000000000000000000000000815260040161136590613df1565b60405180910390fd5b6113b5600360008473ffffffffffffffffffffffffffffffffffffffff1673ffffffffffffffffffffffffffffffffffffffff168152602001908152602001600020611e77565b9050919050565b600d60009054906101000a900473ffffffffffffffffffffffffffffffffffffffff1681565b6060600a8054600181600116156101000203166002900480601f01602080910402602001604051908101604052809291908181526020018280546001816001161561010002031660029004801561147a5780601f1061144f5761010080835404028352916020019161147a565b820191906000526020600020905b81548152906001019060200180831161145d57829003601f168201915b5050505050905090565b61148d336118cf565b6114cc576040517f08c379a00000000000000000000000000000000000000000000000000000000081526004016114c390613e31565b60405180910390fd5b6114d581611e85565b50565b6114e133611edf565b565b601360205281600052604060002081815481106114fc57fe5b906000526020600020906002020160009150915050806001018054600181600116156101000203166002900480601f0160208091040260200160405190810160405280929190818152602001828054600181600116156101000203166002900480156115a95780601f1061157e576101008083540402835291602001916115a9565b820191906000526020600020905b81548152906001019060200180831161158c57829003601f168201915b5050505050905081565b606080601360003373ffffffffffffffffffffffffffffffffffffffff1673ffffffffffffffffffffffffffffffffffffffff168152602001908152602001600020805480602002602001604051908101604052809291908181526020016000905b8282101561175657838290600052602060002090600202016040518060400160405290816000820160028060200260405190810160405280929190826002801561169c576020028201916000905b82829054906101000a900461ffff1661ffff16815260200190600201906020826001010492830192600103820291508084116116635790505b50505050508152602001600182018054600181600116156101000203166002900480601f01602080910402602001604051908101604052809291908181526020018280546001816001161561010002031660029004801561173e5780601f106117135761010080835404028352916020019161173e565b820191906000526020600020905b81548152906001019060200180831161172157829003601f168201915b50505050508152505081526020019060010190611615565b5050505090508091505090565b3373ffffffffffffffffffffffffffffffffffffffff168273ffffffffffffffffffffffffffffffffffffffff1614156117d2576040517f08c379a00000000000000000000000000000000000000000000000000000000081526004016117c990613d71565b60405180910390fd5b80600460003373ffffffffffffffffffffffffffffffffffffffff1673ffffffffffffffffffffffffffffffffffffffff16815260200190815260200160002060008473ffffffffffffffffffffffffffffffffffffffff1673ffffffffffffffffffffffffffffffffffffffff16815260200190815260200160002060006101000a81548160ff0219169083151502179055508173ffffffffffffffffffffffffffffffffffffffff163373ffffffffffffffffffffffffffffffffffffffff167f17307eab39ab6107e8899845ad3d59bd9653f200f220920489ca2b5937696c31836040516118c39190613c52565b60405180910390a35050565b60006118e582600c611f3990919063ffffffff16565b9050919050565b6118f7848484610da8565b61190384848484612001565b611942576040517f08c379a000000000000000000000000000000000000000000000000000000000815260040161193990613cf1565b60405180910390fd5b50505050565b606061195382611b3a565b611992576040517f08c379a000000000000000000000000000000000000000000000000000000000815260040161198990613ef1565b60405180910390fd5b600b60008381526020019081526020016000208054600181600116156101000203166002900480601f016020809104026020016040519081016040528092919081815260200182805460018160011615610100020316600290048015611a395780601f10611a0e57610100808354040283529160200191611a39565b820191906000526020600020905b815481529060010190602001808311611a1c57829003601f168201915b50505050509050919050565b6000600460008473ffffffffffffffffffffffffffffffffffffffff1673ffffffffffffffffffffffffffffffffffffffff16815260200190815260200160002060008373ffffffffffffffffffffffffffffffffffffffff1673ffffffffffffffffffffffffffffffffffffffff16815260200190815260200160002060009054906101000a900460ff16905092915050565b600d60009054906101000a900473ffffffffffffffffffffffffffffffffffffffff1673ffffffffffffffffffffffffffffffffffffffff163373ffffffffffffffffffffffffffffffffffffffff161415611b375780600e819055505b50565b6000806001600084815260200190815260200160002060009054906101000a900473ffffffffffffffffffffffffffffffffffffffff169050600073ffffffffffffffffffffffffffffffffffffffff168173ffffffffffffffffffffffffffffffffffffffff161415915050919050565b6000611c776001601360003373ffffffffffffffffffffffffffffffffffffffff1673ffffffffffffffffffffffffffffffffffffffff16815260200190815260200160002060405180604001604052808781526020018681525090806001815401808255809150509060018203906000526020600020906002020160009091929091909150600082015181600001906002611c49929190612afb565b506020820151816001019080519060200190611c66929190612b98565b50505061211890919063ffffffff16565b9050601282604051611c899190613b82565b90815260200160405180910390208190806001815401808255809150509060018203906000526020600020016000909192909190915055507f1d92873e6e16a41d019e0179f53d71d28918a984d99c8970bfdb9311a1c00ab58383604051611cf2929190613c22565b60405180910390a1505050565b600080828401905083811015611d4a576040517f08c379a0000000000000000000000000000000000000000000000000000000008152600401611d4190613d31565b60405180910390fd5b8091505092915050565b6000611d5f82611b3a565b611d9e576040517f08c379a0000000000000000000000000000000000000000000000000000000008152600401611d9590613db1565b60405180910390fd5b6000611da983611245565b90508073ffffffffffffffffffffffffffffffffffffffff168473ffffffffffffffffffffffffffffffffffffffff161480611e1857508373ffffffffffffffffffffffffffffffffffffffff16611e008461089c565b73ffffffffffffffffffffffffffffffffffffffff16145b80611e295750611e288185611a45565b5b91505092915050565b611e3d83838361216e565b611e47838261239d565b611e51828261253b565b505050565b611e608282612602565b611e6a828261253b565b611e73816127b4565b5050565b600081600001549050919050565b611e9981600c61280090919063ffffffff16565b8073ffffffffffffffffffffffffffffffffffffffff167f6ae172837ea30b801fbfcdd4108aa1d5bf8ff775444fd70256b44e6bf3dfc3f660405160405180910390a250565b611ef381600c6128a890919063ffffffff16565b8073ffffffffffffffffffffffffffffffffffffffff167fe94479a9f7e1952cc78f2d6baab678adc1b772d936c6583def489e524cb6669260405160405180910390a250565b60008073ffffffffffffffffffffffffffffffffffffffff168273ffffffffffffffffffffffffffffffffffffffff161415611faa576040517f08c379a0000000000000000000000000000000000000000000000000000000008152600401611fa190613eb1565b60405180910390fd5b8260000160008373ffffffffffffffffffffffffffffffffffffffff1673ffffffffffffffffffffffffffffffffffffffff16815260200190815260200160002060009054906101000a900460ff16905092915050565b60006120228473ffffffffffffffffffffffffffffffffffffffff1661294f565b61202f5760019050612110565b60008473ffffffffffffffffffffffffffffffffffffffff1663150b7a02338887876040518563ffffffff1660e01b81526004016120709493929190613bb4565b602060405180830381600087803b15801561208a57600080fd5b505af115801561209e573d6000803e3d6000fd5b505050506040513d601f19601f820116820180604052506120c29190810190612fcf565b905063150b7a0260e01b7bffffffffffffffffffffffffffffffffffffffffffffffffffffffff1916817bffffffffffffffffffffffffffffffffffffffffffffffffffffffff1916149150505b949350505050565b60008282111561215d576040517f08c379a000000000000000000000000000000000000000000000000000000000815260040161215490613d91565b60405180910390fd5b600082840390508091505092915050565b8273ffffffffffffffffffffffffffffffffffffffff1661218e82611245565b73ffffffffffffffffffffffffffffffffffffffff16146121e4576040517f08c379a00000000000000000000000000000000000000000000000000000000081526004016121db90613ed1565b60405180910390fd5b600073ffffffffffffffffffffffffffffffffffffffff168273ffffffffffffffffffffffffffffffffffffffff161415612254576040517f08c379a000000000000000000000000000000000000000000000000000000000815260040161224b90613d51565b60405180910390fd5b61225d81612962565b6122a4600360008573ffffffffffffffffffffffffffffffffffffffff1673ffffffffffffffffffffffffffffffffffffffff168152602001908152602001600020612a20565b6122eb600360008473ffffffffffffffffffffffffffffffffffffffff1673ffffffffffffffffffffffffffffffffffffffff168152602001908152602001600020612a43565b816001600083815260200190815260200160002060006101000a81548173ffffffffffffffffffffffffffffffffffffffff021916908373ffffffffffffffffffffffffffffffffffffffff160217905550808273ffffffffffffffffffffffffffffffffffffffff168473ffffffffffffffffffffffffffffffffffffffff167fddf252ad1be2c89b69c2b068fc378daa952ba7f163c4a11628f55a4df523b3ef60405160405180910390a4505050565b60006123f56001600560008673ffffffffffffffffffffffffffffffffffffffff1673ffffffffffffffffffffffffffffffffffffffff1681526020019081526020016000208054905061211890919063ffffffff16565b90506000600660008481526020019081526020016000205490508181146124e2576000600560008673ffffffffffffffffffffffffffffffffffffffff1673ffffffffffffffffffffffffffffffffffffffff168152602001908152602001600020838154811061246257fe5b9060005260206000200154905080600560008773ffffffffffffffffffffffffffffffffffffffff1673ffffffffffffffffffffffffffffffffffffffff16815260200190815260200160002083815481106124ba57fe5b9060005260206000200181905550816006600083815260200190815260200160002081905550505b600560008573ffffffffffffffffffffffffffffffffffffffff1673ffffffffffffffffffffffffffffffffffffffff1681526020019081526020016000208054809190600190036125349190612c18565b5050505050565b600560008373ffffffffffffffffffffffffffffffffffffffff1673ffffffffffffffffffffffffffffffffffffffff168152602001908152602001600020805490506006600083815260200190815260200160002081905550600560008373ffffffffffffffffffffffffffffffffffffffff1673ffffffffffffffffffffffffffffffffffffffff1681526020019081526020016000208190806001815401808255809150509060018203906000526020600020016000909192909190915055505050565b600073ffffffffffffffffffffffffffffffffffffffff168273ffffffffffffffffffffffffffffffffffffffff161415612672576040517f08c379a000000000000000000000000000000000000000000000000000000000815260040161266990613e71565b60405180910390fd5b61267b81611b3a565b156126bb576040517f08c379a00000000000000000000000000000000000000000000000000000000081526004016126b290613d11565b60405180910390fd5b816001600083815260200190815260200160002060006101000a81548173ffffffffffffffffffffffffffffffffffffffff021916908373ffffffffffffffffffffffffffffffffffffffff160217905550612754600360008473ffffffffffffffffffffffffffffffffffffffff1673ffffffffffffffffffffffffffffffffffffffff168152602001908152602001600020612a43565b808273ffffffffffffffffffffffffffffffffffffffff16600073ffffffffffffffffffffffffffffffffffffffff167fddf252ad1be2c89b69c2b068fc378daa952ba7f163c4a11628f55a4df523b3ef60405160405180910390a45050565b6007805490506008600083815260200190815260200160002081905550600781908060018154018082558091505090600182039060005260206000200160009091929091909150555050565b61280a8282611f39565b1561284a576040517f08c379a000000000000000000000000000000000000000000000000000000000815260040161284190613cb1565b60405180910390fd5b60018260000160008373ffffffffffffffffffffffffffffffffffffffff1673ffffffffffffffffffffffffffffffffffffffff16815260200190815260200160002060006101000a81548160ff0219169083151502179055505050565b6128b28282611f39565b6128f1576040517f08c379a00000000000000000000000000000000000000000000000000000000081526004016128e890613e51565b60405180910390fd5b60008260000160008373ffffffffffffffffffffffffffffffffffffffff1673ffffffffffffffffffffffffffffffffffffffff16815260200190815260200160002060006101000a81548160ff0219169083151502179055505050565b600080823b905060008111915050919050565b600073ffffffffffffffffffffffffffffffffffffffff166002600083815260200190815260200160002060009054906101000a900473ffffffffffffffffffffffffffffffffffffffff1673ffffffffffffffffffffffffffffffffffffffff1614612a1d5760006002600083815260200190815260200160002060006101000a81548173ffffffffffffffffffffffffffffffffffffffff021916908373ffffffffffffffffffffffffffffffffffffffff1602179055505b50565b612a386001826000015461211890919063ffffffff16565b816000018190555050565b6001816000016000828254019250508190555050565b6040518060400160405280600290602082028038833980820191505090505090565b828054600181600116156101000203166002900490600052602060002090601f016020900481019282601f10612abc57805160ff1916838001178555612aea565b82800160010185558215612aea579182015b82811115612ae9578251825591602001919060010190612ace565b5b509050612af79190612c44565b5090565b826002600f01601090048101928215612b875791602002820160005b83821115612b5757835183826101000a81548161ffff021916908361ffff1602179055509260200192600201602081600101049283019260010302612b17565b8015612b855782816101000a81549061ffff0219169055600201602081600101049283019260010302612b57565b505b509050612b949190612c69565b5090565b828054600181600116156101000203166002900490600052602060002090601f016020900481019282601f10612bd957805160ff1916838001178555612c07565b82800160010185558215612c07579182015b82811115612c06578251825591602001919060010190612beb565b5b509050612c149190612c44565b5090565b815481835581811115612c3f57818360005260206000209182019101612c3e9190612c44565b5b505050565b612c6691905b80821115612c62576000816000905550600101612c4a565b5090565b90565b612c9791905b80821115612c9357600081816101000a81549061ffff021916905550600101612c6f565b5090565b90565b600081359050612ca981614237565b92915050565b600081359050612cbe8161424e565b92915050565b600081359050612cd381614265565b92915050565b600081519050612ce881614265565b92915050565b600082601f830112612cff57600080fd5b8135612d12612d0d82613fb9565b613f8c565b91508082526020830160208301858383011115612d2e57600080fd5b612d398382846141e4565b50505092915050565b600082601f830112612d5357600080fd5b8135612d66612d6182613fe5565b613f8c565b91508082526020830160208301858383011115612d8257600080fd5b612d8d8382846141e4565b50505092915050565b600082601f830112612da757600080fd5b8135612dba612db582614011565b613f8c565b91508082526020830160208301858383011115612dd657600080fd5b612de18382846141e4565b50505092915050565b600081359050612df98161427c565b92915050565b600060208284031215612e1157600080fd5b6000612e1f84828501612c9a565b91505092915050565b60008060408385031215612e3b57600080fd5b6000612e4985828601612c9a565b9250506020612e5a85828601612c9a565b9150509250929050565b600080600060608486031215612e7957600080fd5b6000612e8786828701612c9a565b9350506020612e9886828701612c9a565b9250506040612ea986828701612dea565b9150509250925092565b60008060008060808587031215612ec957600080fd5b6000612ed787828801612c9a565b9450506020612ee887828801612c9a565b9350506040612ef987828801612dea565b925050606085013567ffffffffffffffff811115612f1657600080fd5b612f2287828801612cee565b91505092959194509250565b60008060408385031215612f4157600080fd5b6000612f4f85828601612c9a565b9250506020612f6085828601612caf565b9150509250929050565b60008060408385031215612f7d57600080fd5b6000612f8b85828601612c9a565b9250506020612f9c85828601612dea565b9150509250929050565b600060208284031215612fb857600080fd5b6000612fc684828501612cc4565b91505092915050565b600060208284031215612fe157600080fd5b6000612fef84828501612cd9565b91505092915050565b60006020828403121561300a57600080fd5b600082013567ffffffffffffffff81111561302457600080fd5b61303084828501612d96565b91505092915050565b6000806040838503121561304c57600080fd5b600083013567ffffffffffffffff81111561306657600080fd5b61307285828601612d42565b925050602061308385828601612dea565b9150509250929050565b60006020828403121561309f57600080fd5b60006130ad84828501612dea565b91505092915050565b60006130c28383613b27565b905092915050565b60006130d68383613b64565b60208301905092915050565b6130eb816141ae565b82525050565b6130fa8161412c565b82525050565b600061310b8261405e565b61311581856140c7565b9350836020820285016131278561403d565b8060005b85811015613163578484038952815161314485826130b6565b945061314f836140a0565b925060208a0199505060018101905061312b565b50829750879550505050505092915050565b61317e81614074565b61318881846140e3565b925061319382614054565b8060005b838110156131c45781516131ab87826130ca565b96506131b6836140ba565b925050600181019050613197565b505050505050565b6131d581614069565b6131df81846140d8565b92506131ea8261404a565b8060005b8381101561321b57815161320287826130ca565b965061320d836140ad565b9250506001810190506131ee565b505050505050565b61322c8161413e565b82525050565b600061323d8261407f565b61324781856140ee565b93506132578185602086016141f3565b61326081614226565b840191505092915050565b600061327682614095565b6132808185614110565b93506132908185602086016141f3565b61329981614226565b840191505092915050565b60006132af82614095565b6132b98185614121565b93506132c98185602086016141f3565b80840191505092915050565b60006132e08261408a565b6132ea81856140ff565b93506132fa8185602086016141f3565b61330381614226565b840191505092915050565b60006133198261408a565b6133238185614110565b93506133338185602086016141f3565b61333c81614226565b840191505092915050565b6000613354601f83614110565b91507f526f6c65733a206163636f756e7420616c72656164792068617320726f6c65006000830152602082019050919050565b6000613394602b83614110565b91507f455243373231456e756d657261626c653a206f776e657220696e646578206f7560008301527f74206f6620626f756e64730000000000000000000000000000000000000000006020830152604082019050919050565b60006133fa603283614110565b91507f4552433732313a207472616e7366657220746f206e6f6e20455243373231526560008301527f63656976657220696d706c656d656e74657200000000000000000000000000006020830152604082019050919050565b6000613460601c83614110565b91507f4552433732313a20746f6b656e20616c7265616479206d696e746564000000006000830152602082019050919050565b60006134a0601b83614110565b91507f536166654d6174683a206164646974696f6e206f766572666c6f7700000000006000830152602082019050919050565b60006134e0602483614110565b91507f4552433732313a207472616e7366657220746f20746865207a65726f2061646460008301527f72657373000000000000000000000000000000000000000000000000000000006020830152604082019050919050565b6000613546601983614110565b91507f4552433732313a20617070726f766520746f2063616c6c6572000000000000006000830152602082019050919050565b6000613586601e83614110565b91507f536166654d6174683a207375627472616374696f6e206f766572666c6f7700006000830152602082019050919050565b60006135c6602c83614110565b91507f4552433732313a206f70657261746f7220717565727920666f72206e6f6e657860008301527f697374656e7420746f6b656e00000000000000000000000000000000000000006020830152604082019050919050565b600061362c603883614110565b91507f4552433732313a20617070726f76652063616c6c6572206973206e6f74206f7760008301527f6e6572206e6f7220617070726f76656420666f7220616c6c00000000000000006020830152604082019050919050565b6000613692602a83614110565b91507f4552433732313a2062616c616e636520717565727920666f7220746865207a6560008301527f726f2061646472657373000000000000000000000000000000000000000000006020830152604082019050919050565b60006136f8602983614110565b91507f4552433732313a206f776e657220717565727920666f72206e6f6e657869737460008301527f656e7420746f6b656e00000000000000000000000000000000000000000000006020830152604082019050919050565b600061375e603083614110565b91507f4d696e746572526f6c653a2063616c6c657220646f6573206e6f74206861766560008301527f20746865204d696e74657220726f6c65000000000000000000000000000000006020830152604082019050919050565b60006137c4602183614110565b91507f526f6c65733a206163636f756e7420646f6573206e6f74206861766520726f6c60008301527f65000000000000000000000000000000000000000000000000000000000000006020830152604082019050919050565b600061382a602083614110565b91507f4552433732313a206d696e7420746f20746865207a65726f20616464726573736000830152602082019050919050565b600061386a602c83614110565b91507f4552433732313a20617070726f76656420717565727920666f72206e6f6e657860008301527f697374656e7420746f6b656e00000000000000000000000000000000000000006020830152604082019050919050565b60006138d0602283614110565b91507f526f6c65733a206163636f756e7420697320746865207a65726f20616464726560008301527f73730000000000000000000000000000000000000000000000000000000000006020830152604082019050919050565b6000613936602983614110565b91507f4552433732313a207472616e73666572206f6620746f6b656e2074686174206960008301527f73206e6f74206f776e00000000000000000000000000000000000000000000006020830152604082019050919050565b600061399c602f83614110565b91507f4552433732314d657461646174613a2055524920717565727920666f72206e6f60008301527f6e6578697374656e7420746f6b656e00000000000000000000000000000000006020830152604082019050919050565b6000613a02602183614110565b91507f4552433732313a20617070726f76616c20746f2063757272656e74206f776e6560008301527f72000000000000000000000000000000000000000000000000000000000000006020830152604082019050919050565b6000613a68603183614110565b91507f4552433732313a207472616e736665722063616c6c6572206973206e6f74206f60008301527f776e6572206e6f7220617070726f7665640000000000000000000000000000006020830152604082019050919050565b6000613ace602c83614110565b91507f455243373231456e756d657261626c653a20676c6f62616c20696e646578206f60008301527f7574206f6620626f756e647300000000000000000000000000000000000000006020830152604082019050919050565b6000606083016000830151613b3f60008601826131cc565b5060208301518482036040860152613b5782826132d5565b9150508091505092915050565b613b6d81614176565b82525050565b613b7c816141a4565b82525050565b6000613b8e82846132a4565b915081905092915050565b6000602082019050613bae60008301846130f1565b92915050565b6000608082019050613bc960008301876130e2565b613bd660208301866130f1565b613be36040830185613b73565b8181036060830152613bf58184613232565b905095945050505050565b60006020820190508181036000830152613c1a8184613100565b905092915050565b6000606082019050613c376000830185613175565b8181036040830152613c49818461326b565b90509392505050565b6000602082019050613c676000830184613223565b92915050565b60006020820190508181036000830152613c87818461330e565b905092915050565b60006020820190508181036000830152613ca9818461326b565b905092915050565b60006020820190508181036000830152613cca81613347565b9050919050565b60006020820190508181036000830152613cea81613387565b9050919050565b60006020820190508181036000830152613d0a816133ed565b9050919050565b60006020820190508181036000830152613d2a81613453565b9050919050565b60006020820190508181036000830152613d4a81613493565b9050919050565b60006020820190508181036000830152613d6a816134d3565b9050919050565b60006020820190508181036000830152613d8a81613539565b9050919050565b60006020820190508181036000830152613daa81613579565b9050919050565b60006020820190508181036000830152613dca816135b9565b9050919050565b60006020820190508181036000830152613dea8161361f565b9050919050565b60006020820190508181036000830152613e0a81613685565b9050919050565b60006020820190508181036000830152613e2a816136eb565b9050919050565b60006020820190508181036000830152613e4a81613751565b9050919050565b60006020820190508181036000830152613e6a816137b7565b9050919050565b60006020820190508181036000830152613e8a8161381d565b9050919050565b60006020820190508181036000830152613eaa8161385d565b9050919050565b60006020820190508181036000830152613eca816138c3565b9050919050565b60006020820190508181036000830152613eea81613929565b9050919050565b60006020820190508181036000830152613f0a8161398f565b9050919050565b60006020820190508181036000830152613f2a816139f5565b9050919050565b60006020820190508181036000830152613f4a81613a5b565b9050919050565b60006020820190508181036000830152613f6a81613ac1565b9050919050565b6000602082019050613f866000830184613b73565b92915050565b6000604051905081810181811067ffffffffffffffff82111715613faf57600080fd5b8060405250919050565b600067ffffffffffffffff821115613fd057600080fd5b601f19601f8301169050602081019050919050565b600067ffffffffffffffff821115613ffc57600080fd5b601f19601f8301169050602081019050919050565b600067ffffffffffffffff82111561402857600080fd5b601f19601f8301169050602081019050919050565b6000602082019050919050565b6000819050919050565b6000819050919050565b600081519050919050565b600060029050919050565b600060029050919050565b600081519050919050565b600081519050919050565b600081519050919050565b6000602082019050919050565b6000602082019050919050565b6000602082019050919050565b600082825260208201905092915050565b600081905092915050565b600081905092915050565b600082825260208201905092915050565b600082825260208201905092915050565b600082825260208201905092915050565b600081905092915050565b600061413782614184565b9050919050565b60008115159050919050565b60007fffffffff0000000000000000000000000000000000000000000000000000000082169050919050565b600061ffff82169050919050565b600073ffffffffffffffffffffffffffffffffffffffff82169050919050565b6000819050919050565b60006141b9826141c0565b9050919050565b60006141cb826141d2565b9050919050565b60006141dd82614184565b9050919050565b82818337600083830152505050565b60005b838110156142115780820151818401526020810190506141f6565b83811115614220576000848401525b50505050565b6000601f19601f8301169050919050565b6142408161412c565b811461424b57600080fd5b50565b6142578161413e565b811461426257600080fd5b50565b61426e8161414a565b811461427957600080fd5b50565b614285816141a4565b811461429057600080fd5b5056fea265627a7a72305820daad398a03c88a346ce1f6e1b20cbc2e54ff7d4851871895d473480055f695e16c6578706572696d656e74616cf50037",
  "source": "pragma solidity ^0.5.0;\npragma experimental ABIEncoderV2;\n\n//defintiely stealing this from somewhere, but the site is called \"Pixel Junkie\"\n\nimport 'openzeppelin-solidity/contracts/token/ERC721/ERC721Full.sol';\nimport 'openzeppelin-solidity/contracts/token/ERC721/ERC721Mintable.sol';\n/* import './safemath.sol'; */\n\ncontract PixelCoin is ERC721Full, ERC721Mintable {\n\n    /* these functions were found from Dani's RainbowCoin tutorial */\n      address public owner;\n      uint public last_completed_migration;\n      constructor() ERC721Full(\"PixelCoin\", \"PixelCoin\") public {\n            owner = msg.sender;\n      }\n      modifier restricted() {\n        if (msg.sender == owner) _;\n      }\n\n      function setCompleted(uint completed) public restricted {\n        last_completed_migration = completed;\n      }\n\n      /* function upgrade(address new_address) public restricted {\n        Migrations upgraded = Migrations(new_address);\n        upgraded.setCompleted(last_completed_migration);\n      } */\n    /* ^Untested, foreign, scary. */\n\n    // From crytozombies:\n    /* function withdraw() external restricted {\n      address _owner = owner();\n      _owner.transfer(address(this).balance);\n    } */\n\n    using SafeMath for uint256;\n\n    //  LOOK THIS UP! STILL DON'T GET IT. SOMETHING ABOUT RECORDING A LOG W/O USING STORAGE\n    event NewPixelRevealed(uint16[2] _xy, string _picture);\n\n    uint sizeOfPicture = 600; // length and width of picture length x width.\n\n    // THE \"COINAGE\" --> PIXELS\n    struct Pixel {\n      uint16[2] xy; // the [x,y] coordinate of the pixel, acts as the pixel's _id\n      string picture; // which picture the pixel is part of.\n    }\n\n    // Picture-name array\n    // USED TO STORE ALL THE NAMES OF THE PICTURES\n    string[] public pictures;\n    uint public lengthOfPictureArray = 3; // length and width of picture length x width.\n\n    // picture's name to pixel-struct-array mapping\n    // USED TO STORE ALL THE AVAILABLE PIXEL COORDINATES ASSOCIATED WITH A GIVEN PICTURE\n    mapping (string => uint[]) public pictureToPixels;\n\n    // USED TO STORE THE OWNED PIXELS OF A GIVEN USER\n    mapping (address => Pixel[]) public ownerToPixels;\n\n    // key: an address\n    // value: [pixelsBoughtOnADay, aDay'sDate]\n    // USED TO CONTROL THE USERS' BUY RATE\n    mapping (address => uint[]) ownertoBoughtCountAndBoughtDay;\n\n    //**//NOT WRITTEN-----\n    //generate random pixel to buy from unowned pixels\n      /* function _generateRandomPixel(string memory _str) private view returns (uint[] memory) {\n        uint[] memory result;\n        uint rand1 = uint(keccak256(abi.encodePacked(_str)));\n        uint rand2 = uint(keccak256(abi.encodePacked(_str)));\n        result.push(rand1 % sizeOfPicture);\n        result.push(rand2 % sizeOfPicture);\n        return result;\n        } */\n    //**//NOT WRITTEN-----\n\n\n    function createPixel(uint16[2] memory _xy, string memory _picture) internal {\n        uint id = ownerToPixels[msg.sender].push(Pixel(_xy, _picture)).sub(1);\n        pictureToPixels[_picture].push(id);\n        /* ownerToPixels[msg.sender].push(_newPixel); */\n        /* ownerPixelCount[msg.sender].add(1); //SAFE MATH!!! */\n    //**//NOT WRITTEN-----\n        emit NewPixelRevealed(_xy, _picture); /// NOT IMPLEMENTED!!!!\n    //**//NOT WRITTEN-----\n    }\n\n    function buyUnownedPixel(string memory _picture) public payable {\n        // require that the amount of pixels bought today is less than 3\n        // or require that today's date is different than the date stored from the last buy.\n        require(ownertoBoughtCountAndBoughtDay[msg.sender][0] < 3 || ownertoBoughtCountAndBoughtDay[msg.sender][1] + 1 days < now);\n\n        // require that there are still pixels left to purchase from the given picture\n        /* require(pictureToPixels[_picture].length != 0); */\n\n    //**//NOT WRITTEN-----\n        //NEED TO GENERATE A RANDOM PIXEL IN AN EFFICIENT WAY FROM THE PIXELS STILL AVAILABLE\n        // _generateRandomPixel(string _str)\n    //**//NOT WRITTEN-----\n\n        uint randCoordinate; // the coordinate randomly generated\n\n        /* for (uint i = 0; i < pictureToPixels[_picture].length; i++) { */\n            // find the item in the array that is equal to the random coordinate generated.\n            /* if (pictureToPixels[_picture][i] == randCoordinate) { */\n                // duplicate the last entry in the array into the index that stores the random coordinate\n                // pop the last entry.\n                /* pictureToPixels[_picture][i] = pictureToPixels[_picture][-i]; */\n                /* pictureToPixels[_picture].pop(); */\n            /* } */\n        /* } */\n\n        uint16[2] memory _xy = [300,300]; //for testing purposes\n\n        createPixel(_xy, _picture);\n\n        // create a new pixel and push it to the ownerToPixel array.\n        /* ownerToPixels[msg.sender].push(_newPixel); */\n\n        // if it hasn't been one day since the last purchase\n        if (ownertoBoughtCountAndBoughtDay[msg.sender][1] + 1 days < now){\n            //increment the amount of pixels bought for that day\n            ownertoBoughtCountAndBoughtDay[msg.sender][0].add(1); //SAFE MATH!!!\n        } else {\n            //else set the time to the new day\n            // might need to typecast the time by calling the 'uint32()' method.\n            ownertoBoughtCountAndBoughtDay[msg.sender][1] = now;\n            //and increment the number of purchases for that day to 1\n            ownertoBoughtCountAndBoughtDay[msg.sender][0] = 1;\n        }\n    }\n\n    /* mapping (string => uint[]) public pictureToPixels;\n\n    // USED TO STORE THE OWNED PIXELS OF A GIVEN USER\n    mapping (address => Pixel[]) public ownerToPixels; */\n\n    // return all pixels owned by the caller of the function\n    function showPixels() public view returns (Pixel[] memory){\n        Pixel[] memory ownersPixels;\n        // push the pixels into the array to be returned by the function\n        ownersPixels = ownerToPixels[msg.sender];\n        return ownersPixels;\n    }\n\n    // STRETCH CHALLENGE: offerToBuy function:: offer to buy the pixels from their owner\n    /* function offerToBuyOwnedPixel(address _buyer, address _seller, uint16[2] _xy, string _picture) external {\n\n    } */\n\n    // A function to add new names to the array of picture names\n    function addPictureToArrayOfPictures(string memory _name) public restricted {\n        bool unique = true;\n        string memory _test;\n        // checks to make sure the name doesn't already exist in the array\n        for (uint i = 0; i < lengthOfPictureArray; i++){\n            _test = pictures[i];\n            if (keccak256(abi.encodePacked(_test)) == keccak256(abi.encodePacked(_name))){\n            unique = false;\n        }\n        // if the name is unique,\n        require(unique == true);\n        // add it to the array.\n        pictures.push(_name);\n        lengthOfPictureArray.add(1);\n    }\n}\n}\n",
  "sourcePath": "/Users/jamesmccrory/Documents/dev/soloDappsProject/contracts/PixelCoin.sol",
  "compiler": {
    "name": "solc",
    "version": "0.5.8+commit.23d335f2.Emscripten.clang"
  },
  "schemaVersion": "3.0.11",
  "updatedAt": "2019-07-03T20:46:32.195Z",
  "devdoc": {
    "methods": {
      "approve(address,uint256)": {
        "details": "Approves another address to transfer the given token ID The zero address indicates there is no approved address. There can only be one approved address per token at a given time. Can only be called by the token owner or an approved operator.",
        "params": {
          "to": "address to be approved for the given token ID",
          "tokenId": "uint256 ID of the token to be approved"
        }
      },
      "balanceOf(address)": {
        "details": "Gets the balance of the specified address.",
        "params": {
          "owner": "address to query the balance of"
        },
        "return": "uint256 representing the amount owned by the passed address"
      },
      "getApproved(uint256)": {
        "details": "Gets the approved address for a token ID, or zero if no address set Reverts if the token ID does not exist.",
        "params": {
          "tokenId": "uint256 ID of the token to query the approval of"
        },
        "return": "address currently approved for the given token ID"
      },
      "isApprovedForAll(address,address)": {
        "details": "Tells whether an operator is approved by a given owner.",
        "params": {
          "operator": "operator address which you want to query the approval of",
          "owner": "owner address which you want to query the approval of"
        },
        "return": "bool whether the given operator is approved by the given owner"
      },
      "mint(address,uint256)": {
        "details": "Function to mint tokens.",
        "params": {
          "to": "The address that will receive the minted tokens.",
          "tokenId": "The token id to mint."
        },
        "return": "A boolean that indicates if the operation was successful."
      },
      "name()": {
        "details": "Gets the token name.",
        "return": "string representing the token name"
      },
      "ownerOf(uint256)": {
        "details": "Gets the owner of the specified token ID.",
        "params": {
          "tokenId": "uint256 ID of the token to query the owner of"
        },
        "return": "address currently marked as the owner of the given token ID"
      },
      "safeTransferFrom(address,address,uint256)": {
        "details": "Safely transfers the ownership of a given token ID to another address If the target address is a contract, it must implement `onERC721Received`, which is called upon a safe transfer, and return the magic value `bytes4(keccak256(\"onERC721Received(address,address,uint256,bytes)\"))`; otherwise, the transfer is reverted. Requires the msg.sender to be the owner, approved, or operator",
        "params": {
          "from": "current owner of the token",
          "to": "address to receive the ownership of the given token ID",
          "tokenId": "uint256 ID of the token to be transferred"
        }
      },
      "safeTransferFrom(address,address,uint256,bytes)": {
        "details": "Safely transfers the ownership of a given token ID to another address If the target address is a contract, it must implement `onERC721Received`, which is called upon a safe transfer, and return the magic value `bytes4(keccak256(\"onERC721Received(address,address,uint256,bytes)\"))`; otherwise, the transfer is reverted. Requires the msg.sender to be the owner, approved, or operator",
        "params": {
          "_data": "bytes data to send along with a safe transfer check",
          "from": "current owner of the token",
          "to": "address to receive the ownership of the given token ID",
          "tokenId": "uint256 ID of the token to be transferred"
        }
      },
      "setApprovalForAll(address,bool)": {
        "details": "Sets or unsets the approval of a given operator An operator is allowed to transfer all tokens of the sender on their behalf.",
        "params": {
          "approved": "representing the status of the approval to be set",
          "to": "operator address to set the approval"
        }
      },
      "supportsInterface(bytes4)": {
        "details": "See `IERC165.supportsInterface`.     * Time complexity O(1), guaranteed to always use less than 30 000 gas."
      },
      "symbol()": {
        "details": "Gets the token symbol.",
        "return": "string representing the token symbol"
      },
      "tokenByIndex(uint256)": {
        "details": "Gets the token ID at a given index of all the tokens in this contract Reverts if the index is greater or equal to the total number of tokens.",
        "params": {
          "index": "uint256 representing the index to be accessed of the tokens list"
        },
        "return": "uint256 token ID at the given index of the tokens list"
      },
      "tokenOfOwnerByIndex(address,uint256)": {
        "details": "Gets the token ID at a given index of the tokens list of the requested owner.",
        "params": {
          "index": "uint256 representing the index to be accessed of the requested tokens list",
          "owner": "address owning the tokens list to be accessed"
        },
        "return": "uint256 token ID at the given index of the tokens list owned by the requested address"
      },
      "tokenURI(uint256)": {
        "details": "Returns an URI for a given token ID. Throws if the token ID does not exist. May return an empty string.",
        "params": {
          "tokenId": "uint256 ID of the token to query"
        }
      },
      "totalSupply()": {
        "details": "Gets the total amount of tokens stored by the contract.",
        "return": "uint256 representing the total amount of tokens"
      },
      "transferFrom(address,address,uint256)": {
        "details": "Transfers the ownership of a given token ID to another address. Usage of this method is discouraged, use `safeTransferFrom` whenever possible. Requires the msg.sender to be the owner, approved, or operator.",
        "params": {
          "from": "current owner of the token",
          "to": "address to receive the ownership of the given token ID",
          "tokenId": "uint256 ID of the token to be transferred"
        }
      }
    }
  },
  "userdoc": {
    "methods": {}
  }
}