{
  "contractName": "PixelCoin",
  "abi": [
    {
      "constant": true,
      "inputs": [
        {
          "name": "interfaceId",
          "type": "bytes4"
        }
      ],
      "name": "supportsInterface",
      "outputs": [
        {
          "name": "",
          "type": "bool"
        }
      ],
      "payable": false,
      "stateMutability": "view",
      "type": "function"
    },
    {
      "constant": true,
      "inputs": [],
      "name": "name",
      "outputs": [
        {
          "name": "",
          "type": "string"
        }
      ],
      "payable": false,
      "stateMutability": "view",
      "type": "function"
    },
    {
      "constant": true,
      "inputs": [
        {
          "name": "tokenId",
          "type": "uint256"
        }
      ],
      "name": "getApproved",
      "outputs": [
        {
          "name": "",
          "type": "address"
        }
      ],
      "payable": false,
      "stateMutability": "view",
      "type": "function"
    },
    {
      "constant": false,
      "inputs": [
        {
          "name": "to",
          "type": "address"
        },
        {
          "name": "tokenId",
          "type": "uint256"
        }
      ],
      "name": "approve",
      "outputs": [],
      "payable": false,
      "stateMutability": "nonpayable",
      "type": "function"
    },
    {
      "constant": true,
      "inputs": [
        {
          "name": "",
          "type": "string"
        },
        {
          "name": "",
          "type": "uint256"
        }
      ],
      "name": "pictureToPixels",
      "outputs": [
        {
          "name": "",
          "type": "uint256"
        }
      ],
      "payable": false,
      "stateMutability": "view",
      "type": "function"
    },
    {
      "constant": true,
      "inputs": [],
      "name": "totalSupply",
      "outputs": [
        {
          "name": "",
          "type": "uint256"
        }
      ],
      "payable": false,
      "stateMutability": "view",
      "type": "function"
    },
    {
      "constant": false,
      "inputs": [
        {
          "name": "from",
          "type": "address"
        },
        {
          "name": "to",
          "type": "address"
        },
        {
          "name": "tokenId",
          "type": "uint256"
        }
      ],
      "name": "transferFrom",
      "outputs": [],
      "payable": false,
      "stateMutability": "nonpayable",
      "type": "function"
    },
    {
      "constant": true,
      "inputs": [
        {
          "name": "owner",
          "type": "address"
        },
        {
          "name": "index",
          "type": "uint256"
        }
      ],
      "name": "tokenOfOwnerByIndex",
      "outputs": [
        {
          "name": "",
          "type": "uint256"
        }
      ],
      "payable": false,
      "stateMutability": "view",
      "type": "function"
    },
    {
      "constant": false,
      "inputs": [
        {
          "name": "to",
          "type": "address"
        },
        {
          "name": "tokenId",
          "type": "uint256"
        }
      ],
      "name": "mint",
      "outputs": [
        {
          "name": "",
          "type": "bool"
        }
      ],
      "payable": false,
      "stateMutability": "nonpayable",
      "type": "function"
    },
    {
      "constant": false,
      "inputs": [
        {
          "name": "from",
          "type": "address"
        },
        {
          "name": "to",
          "type": "address"
        },
        {
          "name": "tokenId",
          "type": "uint256"
        }
      ],
      "name": "safeTransferFrom",
      "outputs": [],
      "payable": false,
      "stateMutability": "nonpayable",
      "type": "function"
    },
    {
      "constant": true,
      "inputs": [],
      "name": "last_completed_migration",
      "outputs": [
        {
          "name": "",
          "type": "uint256"
        }
      ],
      "payable": false,
      "stateMutability": "view",
      "type": "function"
    },
    {
      "constant": true,
      "inputs": [
        {
          "name": "",
          "type": "uint256"
        }
      ],
      "name": "pictures",
      "outputs": [
        {
          "name": "",
          "type": "string"
        }
      ],
      "payable": false,
      "stateMutability": "view",
      "type": "function"
    },
    {
      "constant": true,
      "inputs": [
        {
          "name": "index",
          "type": "uint256"
        }
      ],
      "name": "tokenByIndex",
      "outputs": [
        {
          "name": "",
          "type": "uint256"
        }
      ],
      "payable": false,
      "stateMutability": "view",
      "type": "function"
    },
    {
      "constant": true,
      "inputs": [
        {
          "name": "tokenId",
          "type": "uint256"
        }
      ],
      "name": "ownerOf",
      "outputs": [
        {
          "name": "",
          "type": "address"
        }
      ],
      "payable": false,
      "stateMutability": "view",
      "type": "function"
    },
    {
      "constant": true,
      "inputs": [],
      "name": "lengthOfPictureArray",
      "outputs": [
        {
          "name": "",
          "type": "uint256"
        }
      ],
      "payable": false,
      "stateMutability": "view",
      "type": "function"
    },
    {
      "constant": true,
      "inputs": [
        {
          "name": "owner",
          "type": "address"
        }
      ],
      "name": "balanceOf",
      "outputs": [
        {
          "name": "",
          "type": "uint256"
        }
      ],
      "payable": false,
      "stateMutability": "view",
      "type": "function"
    },
    {
      "constant": true,
      "inputs": [],
      "name": "owner",
      "outputs": [
        {
          "name": "",
          "type": "address"
        }
      ],
      "payable": false,
      "stateMutability": "view",
      "type": "function"
    },
    {
      "constant": true,
      "inputs": [],
      "name": "symbol",
      "outputs": [
        {
          "name": "",
          "type": "string"
        }
      ],
      "payable": false,
      "stateMutability": "view",
      "type": "function"
    },
    {
      "constant": false,
      "inputs": [
        {
          "name": "account",
          "type": "address"
        }
      ],
      "name": "addMinter",
      "outputs": [],
      "payable": false,
      "stateMutability": "nonpayable",
      "type": "function"
    },
    {
      "constant": false,
      "inputs": [],
      "name": "renounceMinter",
      "outputs": [],
      "payable": false,
      "stateMutability": "nonpayable",
      "type": "function"
    },
    {
      "constant": true,
      "inputs": [
        {
          "name": "",
          "type": "address"
        },
        {
          "name": "",
          "type": "uint256"
        }
      ],
      "name": "ownerToPixels",
      "outputs": [
        {
          "name": "picture",
          "type": "string"
        }
      ],
      "payable": false,
      "stateMutability": "view",
      "type": "function"
    },
    {
      "constant": false,
      "inputs": [
        {
          "name": "to",
          "type": "address"
        },
        {
          "name": "approved",
          "type": "bool"
        }
      ],
      "name": "setApprovalForAll",
      "outputs": [],
      "payable": false,
      "stateMutability": "nonpayable",
      "type": "function"
    },
    {
      "constant": true,
      "inputs": [
        {
          "name": "account",
          "type": "address"
        }
      ],
      "name": "isMinter",
      "outputs": [
        {
          "name": "",
          "type": "bool"
        }
      ],
      "payable": false,
      "stateMutability": "view",
      "type": "function"
    },
    {
      "constant": false,
      "inputs": [
        {
          "name": "from",
          "type": "address"
        },
        {
          "name": "to",
          "type": "address"
        },
        {
          "name": "tokenId",
          "type": "uint256"
        },
        {
          "name": "_data",
          "type": "bytes"
        }
      ],
      "name": "safeTransferFrom",
      "outputs": [],
      "payable": false,
      "stateMutability": "nonpayable",
      "type": "function"
    },
    {
      "constant": true,
      "inputs": [
        {
          "name": "tokenId",
          "type": "uint256"
        }
      ],
      "name": "tokenURI",
      "outputs": [
        {
          "name": "",
          "type": "string"
        }
      ],
      "payable": false,
      "stateMutability": "view",
      "type": "function"
    },
    {
      "constant": true,
      "inputs": [
        {
          "name": "owner",
          "type": "address"
        },
        {
          "name": "operator",
          "type": "address"
        }
      ],
      "name": "isApprovedForAll",
      "outputs": [
        {
          "name": "",
          "type": "bool"
        }
      ],
      "payable": false,
      "stateMutability": "view",
      "type": "function"
    },
    {
      "inputs": [],
      "payable": false,
      "stateMutability": "nonpayable",
      "type": "constructor"
    },
    {
      "anonymous": false,
      "inputs": [
        {
          "indexed": false,
          "name": "_xy",
          "type": "uint16[2]"
        },
        {
          "indexed": false,
          "name": "_picture",
          "type": "string"
        }
      ],
      "name": "NewPixelRevealed",
      "type": "event"
    },
    {
      "anonymous": false,
      "inputs": [
        {
          "indexed": true,
          "name": "account",
          "type": "address"
        }
      ],
      "name": "MinterAdded",
      "type": "event"
    },
    {
      "anonymous": false,
      "inputs": [
        {
          "indexed": true,
          "name": "account",
          "type": "address"
        }
      ],
      "name": "MinterRemoved",
      "type": "event"
    },
    {
      "anonymous": false,
      "inputs": [
        {
          "indexed": true,
          "name": "from",
          "type": "address"
        },
        {
          "indexed": true,
          "name": "to",
          "type": "address"
        },
        {
          "indexed": true,
          "name": "tokenId",
          "type": "uint256"
        }
      ],
      "name": "Transfer",
      "type": "event"
    },
    {
      "anonymous": false,
      "inputs": [
        {
          "indexed": true,
          "name": "owner",
          "type": "address"
        },
        {
          "indexed": true,
          "name": "approved",
          "type": "address"
        },
        {
          "indexed": true,
          "name": "tokenId",
          "type": "uint256"
        }
      ],
      "name": "Approval",
      "type": "event"
    },
    {
      "anonymous": false,
      "inputs": [
        {
          "indexed": true,
          "name": "owner",
          "type": "address"
        },
        {
          "indexed": true,
          "name": "operator",
          "type": "address"
        },
        {
          "indexed": false,
          "name": "approved",
          "type": "bool"
        }
      ],
      "name": "ApprovalForAll",
      "type": "event"
    },
    {
      "constant": false,
      "inputs": [
        {
          "name": "completed",
          "type": "uint256"
        }
      ],
      "name": "setCompleted",
      "outputs": [],
      "payable": false,
      "stateMutability": "nonpayable",
      "type": "function"
    },
    {
      "constant": false,
      "inputs": [
        {
          "name": "_picture",
          "type": "string"
        }
      ],
      "name": "buyUnownedPixel",
      "outputs": [],
      "payable": true,
      "stateMutability": "payable",
      "type": "function"
    },
    {
      "constant": true,
      "inputs": [],
      "name": "showPixels",
      "outputs": [
        {
          "components": [
            {
              "name": "xy",
              "type": "uint16[2]"
            },
            {
              "name": "picture",
              "type": "string"
            }
          ],
          "name": "",
          "type": "tuple[]"
        }
      ],
      "payable": false,
      "stateMutability": "view",
      "type": "function"
    },
    {
      "constant": false,
      "inputs": [
        {
          "name": "_name",
          "type": "string"
        }
      ],
      "name": "addPictureToArrayOfPictures",
      "outputs": [],
      "payable": false,
      "stateMutability": "nonpayable",
      "type": "function"
    }
  ],
  "bytecode": "0x6080604052610258600f5560036011553480156200001c57600080fd5b506040518060400160405280600981526020017f506978656c436f696e00000000000000000000000000000000000000000000008152506040518060400160405280600981526020017f506978656c436f696e00000000000000000000000000000000000000000000008152508181620000a36301ffc9a760e01b6200017960201b60201c565b620000bb6380ac58cd60e01b6200017960201b60201c565b620000d363780e9d6360e01b6200017960201b60201c565b8160099080519060200190620000eb92919062000430565b5080600a90805190602001906200010492919062000430565b506200011d635b5e139f60e01b6200017960201b60201c565b5050505062000132336200025160201b60201c565b33600d60006101000a81548173ffffffffffffffffffffffffffffffffffffffff021916908373ffffffffffffffffffffffffffffffffffffffff16021790555062000642565b63ffffffff60e01b817bffffffffffffffffffffffffffffffffffffffffffffffffffffffff19161415620001e5576040517f08c379a0000000000000000000000000000000000000000000000000000000008152600401620001dc90620005ed565b60405180910390fd5b6001600080837bffffffffffffffffffffffffffffffffffffffffffffffffffffffff19167bffffffffffffffffffffffffffffffffffffffffffffffffffffffff1916815260200190815260200160002060006101000a81548160ff02191690831515021790555050565b6200026c81600c620002b260201b620027a01790919060201c565b8073ffffffffffffffffffffffffffffffffffffffff167f6ae172837ea30b801fbfcdd4108aa1d5bf8ff775444fd70256b44e6bf3dfc3f660405160405180910390a250565b620002c482826200036560201b60201c565b1562000307576040517f08c379a0000000000000000000000000000000000000000000000000000000008152600401620002fe90620005cb565b60405180910390fd5b60018260000160008373ffffffffffffffffffffffffffffffffffffffff1673ffffffffffffffffffffffffffffffffffffffff16815260200190815260200160002060006101000a81548160ff0219169083151502179055505050565b60008073ffffffffffffffffffffffffffffffffffffffff168273ffffffffffffffffffffffffffffffffffffffff161415620003d9576040517f08c379a0000000000000000000000000000000000000000000000000000000008152600401620003d0906200060f565b60405180910390fd5b8260000160008373ffffffffffffffffffffffffffffffffffffffff1673ffffffffffffffffffffffffffffffffffffffff16815260200190815260200160002060009054906101000a900460ff16905092915050565b828054600181600116156101000203166002900490600052602060002090601f016020900481019282601f106200047357805160ff1916838001178555620004a4565b82800160010185558215620004a4579182015b82811115620004a357825182559160200191906001019062000486565b5b509050620004b39190620004b7565b5090565b620004dc91905b80821115620004d8576000816000905550600101620004be565b5090565b90565b6000620004ee601f8362000631565b91507f526f6c65733a206163636f756e7420616c72656164792068617320726f6c65006000830152602082019050919050565b600062000530601c8362000631565b91507f4552433136353a20696e76616c696420696e74657266616365206964000000006000830152602082019050919050565b60006200057260228362000631565b91507f526f6c65733a206163636f756e7420697320746865207a65726f20616464726560008301527f73730000000000000000000000000000000000000000000000000000000000006020830152604082019050919050565b60006020820190508181036000830152620005e681620004df565b9050919050565b60006020820190508181036000830152620006088162000521565b9050919050565b600060208201905081810360008301526200062a8162000563565b9050919050565b600082825260208201905092915050565b6140c180620006526000396000f3fe6080604052600436106101cd5760003560e01c80636352211e116100f75780639ae8e96311610095578063b88d4fde11610064578063b88d4fde146106c7578063c87b56dd146106f0578063e985e9c51461072d578063fdacd5761461076a576101cd565b80639ae8e963146105f95780639fb7a1f214610636578063a22cb46514610661578063aa271e1a1461068a576101cd565b80638da5cb5b116100d15780638da5cb5b1461056357806395d89b411461058e578063983b2d56146105b957806398650275146105e2576101cd565b80636352211e146104be5780636aff7b8f146104fb57806370a0823114610526576101cd565b806323b872dd1161016f57806342842e0e1161013e57806342842e0e146103f0578063445df0ac146104195780634a291142146104445780634f6ccce714610481576101cd565b806323b872dd146103245780632a1d1d3f1461034d5780632f745c591461037657806340c10f19146103b3576101cd565b8063095ea7b3116101ab578063095ea7b3146102775780630f075caa146102a057806318160ddd146102dd5780631f32fc6414610308576101cd565b806301ffc9a7146101d257806306fdde031461020f578063081812fc1461023a575b600080fd5b3480156101de57600080fd5b506101f960048036036101f49190810190612e4e565b610793565b6040516102069190613a73565b60405180910390f35b34801561021b57600080fd5b506102246107fa565b6040516102319190613ab0565b60405180910390f35b34801561024657600080fd5b50610261600480360361025c9190810190612f35565b61089c565b60405161026e91906139ea565b60405180910390f35b34801561028357600080fd5b5061029e60048036036102999190810190612e12565b610921565b005b3480156102ac57600080fd5b506102c760048036036102c29190810190612ee1565b610ace565b6040516102d49190613d92565b60405180910390f35b3480156102e957600080fd5b506102f2610b12565b6040516102ff9190613d92565b60405180910390f35b610322600480360361031d9190810190612ea0565b610b1f565b005b34801561033057600080fd5b5061034b60048036036103469190810190612d0c565b610ef1565b005b34801561035957600080fd5b50610374600480360361036f9190810190612ea0565b610f4a565b005b34801561038257600080fd5b5061039d60048036036103989190810190612e12565b61113e565b6040516103aa9190613d92565b60405180910390f35b3480156103bf57600080fd5b506103da60048036036103d59190810190612e12565b6111e7565b6040516103e79190613a73565b60405180910390f35b3480156103fc57600080fd5b5061041760048036036104129190810190612d0c565b611245565b005b34801561042557600080fd5b5061042e611265565b60405161043b9190613d92565b60405180910390f35b34801561045057600080fd5b5061046b60048036036104669190810190612f35565b61126b565b6040516104789190613a8e565b60405180910390f35b34801561048d57600080fd5b506104a860048036036104a39190810190612f35565b611324565b6040516104b59190613d92565b60405180910390f35b3480156104ca57600080fd5b506104e560048036036104e09190810190612f35565b61138e565b6040516104f291906139ea565b60405180910390f35b34801561050757600080fd5b50610510611440565b60405161051d9190613d92565b60405180910390f35b34801561053257600080fd5b5061054d60048036036105489190810190612ca7565b611446565b60405161055a9190613d92565b60405180910390f35b34801561056f57600080fd5b50610578611505565b60405161058591906139ea565b60405180910390f35b34801561059a57600080fd5b506105a361152b565b6040516105b09190613ab0565b60405180910390f35b3480156105c557600080fd5b506105e060048036036105db9190810190612ca7565b6115cd565b005b3480156105ee57600080fd5b506105f7611621565b005b34801561060557600080fd5b50610620600480360361061b9190810190612e12565b61162c565b60405161062d9190613a8e565b60405180910390f35b34801561064257600080fd5b5061064b6116fc565b6040516106589190613a51565b60405180910390f35b34801561066d57600080fd5b5061068860048036036106839190810190612dd6565b6118ac565b005b34801561069657600080fd5b506106b160048036036106ac9190810190612ca7565b611a18565b6040516106be9190613a73565b60405180910390f35b3480156106d357600080fd5b506106ee60048036036106e99190810190612d5b565b611a35565b005b3480156106fc57600080fd5b5061071760048036036107129190810190612f35565b611a91565b6040516107249190613ab0565b60405180910390f35b34801561073957600080fd5b50610754600480360361074f9190810190612cd0565b611b8e565b6040516107619190613a73565b60405180910390f35b34801561077657600080fd5b50610791600480360361078c9190810190612f35565b611c22565b005b6000806000837bffffffffffffffffffffffffffffffffffffffffffffffffffffffff19167bffffffffffffffffffffffffffffffffffffffffffffffffffffffff1916815260200190815260200160002060009054906101000a900460ff169050919050565b606060098054600181600116156101000203166002900480601f0160208091040260200160405190810160405280929190818152602001828054600181600116156101000203166002900480156108925780601f1061086757610100808354040283529160200191610892565b820191906000526020600020905b81548152906001019060200180831161087557829003601f168201915b5050505050905090565b60006108a782611c83565b6108e6576040517f08c379a00000000000000000000000000000000000000000000000000000000081526004016108dd90613cb2565b60405180910390fd5b6002600083815260200190815260200160002060009054906101000a900473ffffffffffffffffffffffffffffffffffffffff169050919050565b600061092c8261138e565b90508073ffffffffffffffffffffffffffffffffffffffff168373ffffffffffffffffffffffffffffffffffffffff16141561099d576040517f08c379a000000000000000000000000000000000000000000000000000000000815260040161099490613d32565b60405180910390fd5b8073ffffffffffffffffffffffffffffffffffffffff163373ffffffffffffffffffffffffffffffffffffffff1614806109dd57506109dc8133611b8e565b5b610a1c576040517f08c379a0000000000000000000000000000000000000000000000000000000008152600401610a1390613bf2565b60405180910390fd5b826002600084815260200190815260200160002060006101000a81548173ffffffffffffffffffffffffffffffffffffffff021916908373ffffffffffffffffffffffffffffffffffffffff160217905550818373ffffffffffffffffffffffffffffffffffffffff168273ffffffffffffffffffffffffffffffffffffffff167f8c5be1e5ebec7d5bd14f71427d1e84f3dd0314c0f7b2291e5b200ac8c7c3b92560405160405180910390a4505050565b6012828051602081018201805184825260208301602085012081835280955050505050508181548110610afd57fe5b90600052602060002001600091509150505481565b6000600780549050905090565b6003601460003373ffffffffffffffffffffffffffffffffffffffff1673ffffffffffffffffffffffffffffffffffffffff168152602001908152602001600020600081548110610b6c57fe5b90600052602060002001541080610bdc57504262015180601460003373ffffffffffffffffffffffffffffffffffffffff1673ffffffffffffffffffffffffffffffffffffffff168152602001908152602001600020600181548110610bce57fe5b906000526020600020015401105b610be557600080fd5b6000601282604051610bf791906139d3565b9081526020016040518091039020805490501415610c1457600080fd5b600080600090505b601283604051610c2c91906139d3565b908152602001604051809103902080549050811015610d395781601284604051610c5691906139d3565b90815260200160405180910390208281548110610c6f57fe5b90600052602060002001541415610d2c57601283604051610c9091906139d3565b90815260200160405180910390208160000381548110610cac57fe5b9060005260206000200154601284604051610cc791906139d3565b90815260200160405180910390208281548110610ce057fe5b9060005260206000200181905550601283604051610cfe91906139d3565b9081526020016040518091039020805480610d1557fe5b600190038181906000526020600020016000905590555b8080600101915050610c1c565b50610d42612a4f565b604051806040016040528061012c61ffff16815260200161012c61ffff1681525090504262015180601460003373ffffffffffffffffffffffffffffffffffffffff1673ffffffffffffffffffffffffffffffffffffffff168152602001908152602001600020600181548110610db557fe5b9060005260206000200154011015610e3657610e306001601460003373ffffffffffffffffffffffffffffffffffffffff1673ffffffffffffffffffffffffffffffffffffffff168152602001908152602001600020600081548110610e1757fe5b9060005260206000200154611cf590919063ffffffff16565b50610eec565b42601460003373ffffffffffffffffffffffffffffffffffffffff1673ffffffffffffffffffffffffffffffffffffffff168152602001908152602001600020600181548110610e8257fe5b90600052602060002001819055506001601460003373ffffffffffffffffffffffffffffffffffffffff1673ffffffffffffffffffffffffffffffffffffffff168152602001908152602001600020600081548110610edd57fe5b90600052602060002001819055505b505050565b610efb3382611d4a565b610f3a576040517f08c379a0000000000000000000000000000000000000000000000000000000008152600401610f3190613d52565b60405180910390fd5b610f45838383611e28565b505050565b600d60009054906101000a900473ffffffffffffffffffffffffffffffffffffffff1673ffffffffffffffffffffffffffffffffffffffff163373ffffffffffffffffffffffffffffffffffffffff16141561113b57600060019050606060008090505b6011548110156111375760108181548110610fc557fe5b906000526020600020018054600181600116156101000203166002900480601f0160208091040260200160405190810160405280929190818152602001828054600181600116156101000203166002900480156110635780601f1061103857610100808354040283529160200191611063565b820191906000526020600020905b81548152906001019060200180831161104657829003601f168201915b505050505091508360405160200161107b91906139d3565b60405160208183030381529060405280519060200120826040516020016110a291906139d3565b6040516020818303038152906040528051906020012014156110c357600092505b60011515831515146110d457600080fd5b6010849080600181540180825580915050906001820390600052602060002001600090919290919091509080519060200190611111929190612a71565b50506111296001601154611cf590919063ffffffff16565b508080600101915050610fae565b5050505b50565b600061114983611446565b821061118a576040517f08c379a000000000000000000000000000000000000000000000000000000000815260040161118190613af2565b60405180910390fd5b600560008473ffffffffffffffffffffffffffffffffffffffff1673ffffffffffffffffffffffffffffffffffffffff16815260200190815260200160002082815481106111d457fe5b9060005260206000200154905092915050565b60006111f233611a18565b611231576040517f08c379a000000000000000000000000000000000000000000000000000000000815260040161122890613c52565b60405180910390fd5b61123b8383611e4c565b6001905092915050565b61126083838360405180602001604052806000815250611a35565b505050565b600e5481565b6010818154811061127857fe5b906000526020600020016000915090508054600181600116156101000203166002900480601f01602080910402602001604051908101604052809291908181526020018280546001816001161561010002031660029004801561131c5780601f106112f15761010080835404028352916020019161131c565b820191906000526020600020905b8154815290600101906020018083116112ff57829003601f168201915b505050505081565b600061132e610b12565b821061136f576040517f08c379a000000000000000000000000000000000000000000000000000000000815260040161136690613d72565b60405180910390fd5b6007828154811061137c57fe5b90600052602060002001549050919050565b6000806001600084815260200190815260200160002060009054906101000a900473ffffffffffffffffffffffffffffffffffffffff169050600073ffffffffffffffffffffffffffffffffffffffff168173ffffffffffffffffffffffffffffffffffffffff161415611437576040517f08c379a000000000000000000000000000000000000000000000000000000000815260040161142e90613c32565b60405180910390fd5b80915050919050565b60115481565b60008073ffffffffffffffffffffffffffffffffffffffff168273ffffffffffffffffffffffffffffffffffffffff1614156114b7576040517f08c379a00000000000000000000000000000000000000000000000000000000081526004016114ae90613c12565b60405180910390fd5b6114fe600360008473ffffffffffffffffffffffffffffffffffffffff1673ffffffffffffffffffffffffffffffffffffffff168152602001908152602001600020611e6d565b9050919050565b600d60009054906101000a900473ffffffffffffffffffffffffffffffffffffffff1681565b6060600a8054600181600116156101000203166002900480601f0160208091040260200160405190810160405280929190818152602001828054600181600116156101000203166002900480156115c35780601f10611598576101008083540402835291602001916115c3565b820191906000526020600020905b8154815290600101906020018083116115a657829003601f168201915b5050505050905090565b6115d633611a18565b611615576040517f08c379a000000000000000000000000000000000000000000000000000000000815260040161160c90613c52565b60405180910390fd5b61161e81611e7b565b50565b61162a33611ed5565b565b6013602052816000526040600020818154811061164557fe5b906000526020600020906002020160009150915050806001018054600181600116156101000203166002900480601f0160208091040260200160405190810160405280929190818152602001828054600181600116156101000203166002900480156116f25780601f106116c7576101008083540402835291602001916116f2565b820191906000526020600020905b8154815290600101906020018083116116d557829003601f168201915b5050505050905081565b606080601360003373ffffffffffffffffffffffffffffffffffffffff1673ffffffffffffffffffffffffffffffffffffffff168152602001908152602001600020805480602002602001604051908101604052809291908181526020016000905b8282101561189f5783829060005260206000209060020201604051806040016040529081600082016002806020026040519081016040528092919082600280156117e5576020028201916000905b82829054906101000a900461ffff1661ffff16815260200190600201906020826001010492830192600103820291508084116117ac5790505b50505050508152602001600182018054600181600116156101000203166002900480601f0160208091040260200160405190810160405280929190818152602001828054600181600116156101000203166002900480156118875780601f1061185c57610100808354040283529160200191611887565b820191906000526020600020905b81548152906001019060200180831161186a57829003601f168201915b5050505050815250508152602001906001019061175e565b5050505090508091505090565b3373ffffffffffffffffffffffffffffffffffffffff168273ffffffffffffffffffffffffffffffffffffffff16141561191b576040517f08c379a000000000000000000000000000000000000000000000000000000000815260040161191290613b92565b60405180910390fd5b80600460003373ffffffffffffffffffffffffffffffffffffffff1673ffffffffffffffffffffffffffffffffffffffff16815260200190815260200160002060008473ffffffffffffffffffffffffffffffffffffffff1673ffffffffffffffffffffffffffffffffffffffff16815260200190815260200160002060006101000a81548160ff0219169083151502179055508173ffffffffffffffffffffffffffffffffffffffff163373ffffffffffffffffffffffffffffffffffffffff167f17307eab39ab6107e8899845ad3d59bd9653f200f220920489ca2b5937696c3183604051611a0c9190613a73565b60405180910390a35050565b6000611a2e82600c611f2f90919063ffffffff16565b9050919050565b611a40848484610ef1565b611a4c84848484611ff7565b611a8b576040517f08c379a0000000000000000000000000000000000000000000000000000000008152600401611a8290613b12565b60405180910390fd5b50505050565b6060611a9c82611c83565b611adb576040517f08c379a0000000000000000000000000000000000000000000000000000000008152600401611ad290613d12565b60405180910390fd5b600b60008381526020019081526020016000208054600181600116156101000203166002900480601f016020809104026020016040519081016040528092919081815260200182805460018160011615610100020316600290048015611b825780601f10611b5757610100808354040283529160200191611b82565b820191906000526020600020905b815481529060010190602001808311611b6557829003601f168201915b50505050509050919050565b6000600460008473ffffffffffffffffffffffffffffffffffffffff1673ffffffffffffffffffffffffffffffffffffffff16815260200190815260200160002060008373ffffffffffffffffffffffffffffffffffffffff1673ffffffffffffffffffffffffffffffffffffffff16815260200190815260200160002060009054906101000a900460ff16905092915050565b600d60009054906101000a900473ffffffffffffffffffffffffffffffffffffffff1673ffffffffffffffffffffffffffffffffffffffff163373ffffffffffffffffffffffffffffffffffffffff161415611c805780600e819055505b50565b6000806001600084815260200190815260200160002060009054906101000a900473ffffffffffffffffffffffffffffffffffffffff169050600073ffffffffffffffffffffffffffffffffffffffff168173ffffffffffffffffffffffffffffffffffffffff161415915050919050565b600080828401905083811015611d40576040517f08c379a0000000000000000000000000000000000000000000000000000000008152600401611d3790613b52565b60405180910390fd5b8091505092915050565b6000611d5582611c83565b611d94576040517f08c379a0000000000000000000000000000000000000000000000000000000008152600401611d8b90613bd2565b60405180910390fd5b6000611d9f8361138e565b90508073ffffffffffffffffffffffffffffffffffffffff168473ffffffffffffffffffffffffffffffffffffffff161480611e0e57508373ffffffffffffffffffffffffffffffffffffffff16611df68461089c565b73ffffffffffffffffffffffffffffffffffffffff16145b80611e1f5750611e1e8185611b8e565b5b91505092915050565b611e3383838361210e565b611e3d838261233d565b611e4782826124db565b505050565b611e5682826125a2565b611e6082826124db565b611e6981612754565b5050565b600081600001549050919050565b611e8f81600c6127a090919063ffffffff16565b8073ffffffffffffffffffffffffffffffffffffffff167f6ae172837ea30b801fbfcdd4108aa1d5bf8ff775444fd70256b44e6bf3dfc3f660405160405180910390a250565b611ee981600c61284890919063ffffffff16565b8073ffffffffffffffffffffffffffffffffffffffff167fe94479a9f7e1952cc78f2d6baab678adc1b772d936c6583def489e524cb6669260405160405180910390a250565b60008073ffffffffffffffffffffffffffffffffffffffff168273ffffffffffffffffffffffffffffffffffffffff161415611fa0576040517f08c379a0000000000000000000000000000000000000000000000000000000008152600401611f9790613cd2565b60405180910390fd5b8260000160008373ffffffffffffffffffffffffffffffffffffffff1673ffffffffffffffffffffffffffffffffffffffff16815260200190815260200160002060009054906101000a900460ff16905092915050565b60006120188473ffffffffffffffffffffffffffffffffffffffff166128ef565b6120255760019050612106565b60008473ffffffffffffffffffffffffffffffffffffffff1663150b7a02338887876040518563ffffffff1660e01b81526004016120669493929190613a05565b602060405180830381600087803b15801561208057600080fd5b505af1158015612094573d6000803e3d6000fd5b505050506040513d601f19601f820116820180604052506120b89190810190612e77565b905063150b7a0260e01b7bffffffffffffffffffffffffffffffffffffffffffffffffffffffff1916817bffffffffffffffffffffffffffffffffffffffffffffffffffffffff1916149150505b949350505050565b8273ffffffffffffffffffffffffffffffffffffffff1661212e8261138e565b73ffffffffffffffffffffffffffffffffffffffff1614612184576040517f08c379a000000000000000000000000000000000000000000000000000000000815260040161217b90613cf2565b60405180910390fd5b600073ffffffffffffffffffffffffffffffffffffffff168273ffffffffffffffffffffffffffffffffffffffff1614156121f4576040517f08c379a00000000000000000000000000000000000000000000000000000000081526004016121eb90613b72565b60405180910390fd5b6121fd81612902565b612244600360008573ffffffffffffffffffffffffffffffffffffffff1673ffffffffffffffffffffffffffffffffffffffff1681526020019081526020016000206129c0565b61228b600360008473ffffffffffffffffffffffffffffffffffffffff1673ffffffffffffffffffffffffffffffffffffffff1681526020019081526020016000206129e3565b816001600083815260200190815260200160002060006101000a81548173ffffffffffffffffffffffffffffffffffffffff021916908373ffffffffffffffffffffffffffffffffffffffff160217905550808273ffffffffffffffffffffffffffffffffffffffff168473ffffffffffffffffffffffffffffffffffffffff167fddf252ad1be2c89b69c2b068fc378daa952ba7f163c4a11628f55a4df523b3ef60405160405180910390a4505050565b60006123956001600560008673ffffffffffffffffffffffffffffffffffffffff1673ffffffffffffffffffffffffffffffffffffffff168152602001908152602001600020805490506129f990919063ffffffff16565b9050600060066000848152602001908152602001600020549050818114612482576000600560008673ffffffffffffffffffffffffffffffffffffffff1673ffffffffffffffffffffffffffffffffffffffff168152602001908152602001600020838154811061240257fe5b9060005260206000200154905080600560008773ffffffffffffffffffffffffffffffffffffffff1673ffffffffffffffffffffffffffffffffffffffff168152602001908152602001600020838154811061245a57fe5b9060005260206000200181905550816006600083815260200190815260200160002081905550505b600560008573ffffffffffffffffffffffffffffffffffffffff1673ffffffffffffffffffffffffffffffffffffffff1681526020019081526020016000208054809190600190036124d49190612af1565b5050505050565b600560008373ffffffffffffffffffffffffffffffffffffffff1673ffffffffffffffffffffffffffffffffffffffff168152602001908152602001600020805490506006600083815260200190815260200160002081905550600560008373ffffffffffffffffffffffffffffffffffffffff1673ffffffffffffffffffffffffffffffffffffffff1681526020019081526020016000208190806001815401808255809150509060018203906000526020600020016000909192909190915055505050565b600073ffffffffffffffffffffffffffffffffffffffff168273ffffffffffffffffffffffffffffffffffffffff161415612612576040517f08c379a000000000000000000000000000000000000000000000000000000000815260040161260990613c92565b60405180910390fd5b61261b81611c83565b1561265b576040517f08c379a000000000000000000000000000000000000000000000000000000000815260040161265290613b32565b60405180910390fd5b816001600083815260200190815260200160002060006101000a81548173ffffffffffffffffffffffffffffffffffffffff021916908373ffffffffffffffffffffffffffffffffffffffff1602179055506126f4600360008473ffffffffffffffffffffffffffffffffffffffff1673ffffffffffffffffffffffffffffffffffffffff1681526020019081526020016000206129e3565b808273ffffffffffffffffffffffffffffffffffffffff16600073ffffffffffffffffffffffffffffffffffffffff167fddf252ad1be2c89b69c2b068fc378daa952ba7f163c4a11628f55a4df523b3ef60405160405180910390a45050565b6007805490506008600083815260200190815260200160002081905550600781908060018154018082558091505090600182039060005260206000200160009091929091909150555050565b6127aa8282611f2f565b156127ea576040517f08c379a00000000000000000000000000000000000000000000000000000000081526004016127e190613ad2565b60405180910390fd5b60018260000160008373ffffffffffffffffffffffffffffffffffffffff1673ffffffffffffffffffffffffffffffffffffffff16815260200190815260200160002060006101000a81548160ff0219169083151502179055505050565b6128528282611f2f565b612891576040517f08c379a000000000000000000000000000000000000000000000000000000000815260040161288890613c72565b60405180910390fd5b60008260000160008373ffffffffffffffffffffffffffffffffffffffff1673ffffffffffffffffffffffffffffffffffffffff16815260200190815260200160002060006101000a81548160ff0219169083151502179055505050565b600080823b905060008111915050919050565b600073ffffffffffffffffffffffffffffffffffffffff166002600083815260200190815260200160002060009054906101000a900473ffffffffffffffffffffffffffffffffffffffff1673ffffffffffffffffffffffffffffffffffffffff16146129bd5760006002600083815260200190815260200160002060006101000a81548173ffffffffffffffffffffffffffffffffffffffff021916908373ffffffffffffffffffffffffffffffffffffffff1602179055505b50565b6129d8600182600001546129f990919063ffffffff16565b816000018190555050565b6001816000016000828254019250508190555050565b600082821115612a3e576040517f08c379a0000000000000000000000000000000000000000000000000000000008152600401612a3590613bb2565b60405180910390fd5b600082840390508091505092915050565b6040518060400160405280600290602082028038833980820191505090505090565b828054600181600116156101000203166002900490600052602060002090601f016020900481019282601f10612ab257805160ff1916838001178555612ae0565b82800160010185558215612ae0579182015b82811115612adf578251825591602001919060010190612ac4565b5b509050612aed9190612b1d565b5090565b815481835581811115612b1857818360005260206000209182019101612b179190612b1d565b5b505050565b612b3f91905b80821115612b3b576000816000905550600101612b23565b5090565b90565b600081359050612b518161402b565b92915050565b600081359050612b6681614042565b92915050565b600081359050612b7b81614059565b92915050565b600081519050612b9081614059565b92915050565b600082601f830112612ba757600080fd5b8135612bba612bb582613dda565b613dad565b91508082526020830160208301858383011115612bd657600080fd5b612be1838284613fd8565b50505092915050565b600082601f830112612bfb57600080fd5b8135612c0e612c0982613e06565b613dad565b91508082526020830160208301858383011115612c2a57600080fd5b612c35838284613fd8565b50505092915050565b600082601f830112612c4f57600080fd5b8135612c62612c5d82613e32565b613dad565b91508082526020830160208301858383011115612c7e57600080fd5b612c89838284613fd8565b50505092915050565b600081359050612ca181614070565b92915050565b600060208284031215612cb957600080fd5b6000612cc784828501612b42565b91505092915050565b60008060408385031215612ce357600080fd5b6000612cf185828601612b42565b9250506020612d0285828601612b42565b9150509250929050565b600080600060608486031215612d2157600080fd5b6000612d2f86828701612b42565b9350506020612d4086828701612b42565b9250506040612d5186828701612c92565b9150509250925092565b60008060008060808587031215612d7157600080fd5b6000612d7f87828801612b42565b9450506020612d9087828801612b42565b9350506040612da187828801612c92565b925050606085013567ffffffffffffffff811115612dbe57600080fd5b612dca87828801612b96565b91505092959194509250565b60008060408385031215612de957600080fd5b6000612df785828601612b42565b9250506020612e0885828601612b57565b9150509250929050565b60008060408385031215612e2557600080fd5b6000612e3385828601612b42565b9250506020612e4485828601612c92565b9150509250929050565b600060208284031215612e6057600080fd5b6000612e6e84828501612b6c565b91505092915050565b600060208284031215612e8957600080fd5b6000612e9784828501612b81565b91505092915050565b600060208284031215612eb257600080fd5b600082013567ffffffffffffffff811115612ecc57600080fd5b612ed884828501612c3e565b91505092915050565b60008060408385031215612ef457600080fd5b600083013567ffffffffffffffff811115612f0e57600080fd5b612f1a85828601612bea565b9250506020612f2b85828601612c92565b9150509250929050565b600060208284031215612f4757600080fd5b6000612f5584828501612c92565b91505092915050565b6000612f6a8383613978565b905092915050565b6000612f7e83836139b5565b60208301905092915050565b612f9381613fa2565b82525050565b612fa281613f20565b82525050565b6000612fb382613e75565b612fbd8185613ec6565b935083602082028501612fcf85613e5e565b8060005b8581101561300b5784840389528151612fec8582612f5e565b9450612ff783613eac565b925060208a01995050600181019050612fd3565b50829750879550505050505092915050565b61302681613e80565b6130308184613ed7565b925061303b82613e6b565b8060005b8381101561306c5781516130538782612f72565b965061305e83613eb9565b92505060018101905061303f565b505050505050565b61307d81613f32565b82525050565b600061308e82613e8b565b6130988185613ee2565b93506130a8818560208601613fe7565b6130b18161401a565b840191505092915050565b60006130c782613ea1565b6130d18185613f04565b93506130e1818560208601613fe7565b6130ea8161401a565b840191505092915050565b600061310082613ea1565b61310a8185613f15565b935061311a818560208601613fe7565b80840191505092915050565b600061313182613e96565b61313b8185613ef3565b935061314b818560208601613fe7565b6131548161401a565b840191505092915050565b600061316a82613e96565b6131748185613f04565b9350613184818560208601613fe7565b61318d8161401a565b840191505092915050565b60006131a5601f83613f04565b91507f526f6c65733a206163636f756e7420616c72656164792068617320726f6c65006000830152602082019050919050565b60006131e5602b83613f04565b91507f455243373231456e756d657261626c653a206f776e657220696e646578206f7560008301527f74206f6620626f756e64730000000000000000000000000000000000000000006020830152604082019050919050565b600061324b603283613f04565b91507f4552433732313a207472616e7366657220746f206e6f6e20455243373231526560008301527f63656976657220696d706c656d656e74657200000000000000000000000000006020830152604082019050919050565b60006132b1601c83613f04565b91507f4552433732313a20746f6b656e20616c7265616479206d696e746564000000006000830152602082019050919050565b60006132f1601b83613f04565b91507f536166654d6174683a206164646974696f6e206f766572666c6f7700000000006000830152602082019050919050565b6000613331602483613f04565b91507f4552433732313a207472616e7366657220746f20746865207a65726f2061646460008301527f72657373000000000000000000000000000000000000000000000000000000006020830152604082019050919050565b6000613397601983613f04565b91507f4552433732313a20617070726f766520746f2063616c6c6572000000000000006000830152602082019050919050565b60006133d7601e83613f04565b91507f536166654d6174683a207375627472616374696f6e206f766572666c6f7700006000830152602082019050919050565b6000613417602c83613f04565b91507f4552433732313a206f70657261746f7220717565727920666f72206e6f6e657860008301527f697374656e7420746f6b656e00000000000000000000000000000000000000006020830152604082019050919050565b600061347d603883613f04565b91507f4552433732313a20617070726f76652063616c6c6572206973206e6f74206f7760008301527f6e6572206e6f7220617070726f76656420666f7220616c6c00000000000000006020830152604082019050919050565b60006134e3602a83613f04565b91507f4552433732313a2062616c616e636520717565727920666f7220746865207a6560008301527f726f2061646472657373000000000000000000000000000000000000000000006020830152604082019050919050565b6000613549602983613f04565b91507f4552433732313a206f776e657220717565727920666f72206e6f6e657869737460008301527f656e7420746f6b656e00000000000000000000000000000000000000000000006020830152604082019050919050565b60006135af603083613f04565b91507f4d696e746572526f6c653a2063616c6c657220646f6573206e6f74206861766560008301527f20746865204d696e74657220726f6c65000000000000000000000000000000006020830152604082019050919050565b6000613615602183613f04565b91507f526f6c65733a206163636f756e7420646f6573206e6f74206861766520726f6c60008301527f65000000000000000000000000000000000000000000000000000000000000006020830152604082019050919050565b600061367b602083613f04565b91507f4552433732313a206d696e7420746f20746865207a65726f20616464726573736000830152602082019050919050565b60006136bb602c83613f04565b91507f4552433732313a20617070726f76656420717565727920666f72206e6f6e657860008301527f697374656e7420746f6b656e00000000000000000000000000000000000000006020830152604082019050919050565b6000613721602283613f04565b91507f526f6c65733a206163636f756e7420697320746865207a65726f20616464726560008301527f73730000000000000000000000000000000000000000000000000000000000006020830152604082019050919050565b6000613787602983613f04565b91507f4552433732313a207472616e73666572206f6620746f6b656e2074686174206960008301527f73206e6f74206f776e00000000000000000000000000000000000000000000006020830152604082019050919050565b60006137ed602f83613f04565b91507f4552433732314d657461646174613a2055524920717565727920666f72206e6f60008301527f6e6578697374656e7420746f6b656e00000000000000000000000000000000006020830152604082019050919050565b6000613853602183613f04565b91507f4552433732313a20617070726f76616c20746f2063757272656e74206f776e6560008301527f72000000000000000000000000000000000000000000000000000000000000006020830152604082019050919050565b60006138b9603183613f04565b91507f4552433732313a207472616e736665722063616c6c6572206973206e6f74206f60008301527f776e6572206e6f7220617070726f7665640000000000000000000000000000006020830152604082019050919050565b600061391f602c83613f04565b91507f455243373231456e756d657261626c653a20676c6f62616c20696e646578206f60008301527f7574206f6620626f756e647300000000000000000000000000000000000000006020830152604082019050919050565b6000606083016000830151613990600086018261301d565b50602083015184820360408601526139a88282613126565b9150508091505092915050565b6139be81613f6a565b82525050565b6139cd81613f98565b82525050565b60006139df82846130f5565b915081905092915050565b60006020820190506139ff6000830184612f99565b92915050565b6000608082019050613a1a6000830187612f8a565b613a276020830186612f99565b613a3460408301856139c4565b8181036060830152613a468184613083565b905095945050505050565b60006020820190508181036000830152613a6b8184612fa8565b905092915050565b6000602082019050613a886000830184613074565b92915050565b60006020820190508181036000830152613aa8818461315f565b905092915050565b60006020820190508181036000830152613aca81846130bc565b905092915050565b60006020820190508181036000830152613aeb81613198565b9050919050565b60006020820190508181036000830152613b0b816131d8565b9050919050565b60006020820190508181036000830152613b2b8161323e565b9050919050565b60006020820190508181036000830152613b4b816132a4565b9050919050565b60006020820190508181036000830152613b6b816132e4565b9050919050565b60006020820190508181036000830152613b8b81613324565b9050919050565b60006020820190508181036000830152613bab8161338a565b9050919050565b60006020820190508181036000830152613bcb816133ca565b9050919050565b60006020820190508181036000830152613beb8161340a565b9050919050565b60006020820190508181036000830152613c0b81613470565b9050919050565b60006020820190508181036000830152613c2b816134d6565b9050919050565b60006020820190508181036000830152613c4b8161353c565b9050919050565b60006020820190508181036000830152613c6b816135a2565b9050919050565b60006020820190508181036000830152613c8b81613608565b9050919050565b60006020820190508181036000830152613cab8161366e565b9050919050565b60006020820190508181036000830152613ccb816136ae565b9050919050565b60006020820190508181036000830152613ceb81613714565b9050919050565b60006020820190508181036000830152613d0b8161377a565b9050919050565b60006020820190508181036000830152613d2b816137e0565b9050919050565b60006020820190508181036000830152613d4b81613846565b9050919050565b60006020820190508181036000830152613d6b816138ac565b9050919050565b60006020820190508181036000830152613d8b81613912565b9050919050565b6000602082019050613da760008301846139c4565b92915050565b6000604051905081810181811067ffffffffffffffff82111715613dd057600080fd5b8060405250919050565b600067ffffffffffffffff821115613df157600080fd5b601f19601f8301169050602081019050919050565b600067ffffffffffffffff821115613e1d57600080fd5b601f19601f8301169050602081019050919050565b600067ffffffffffffffff821115613e4957600080fd5b601f19601f8301169050602081019050919050565b6000602082019050919050565b6000819050919050565b600081519050919050565b600060029050919050565b600081519050919050565b600081519050919050565b600081519050919050565b6000602082019050919050565b6000602082019050919050565b600082825260208201905092915050565b600081905092915050565b600082825260208201905092915050565b600082825260208201905092915050565b600082825260208201905092915050565b600081905092915050565b6000613f2b82613f78565b9050919050565b60008115159050919050565b60007fffffffff0000000000000000000000000000000000000000000000000000000082169050919050565b600061ffff82169050919050565b600073ffffffffffffffffffffffffffffffffffffffff82169050919050565b6000819050919050565b6000613fad82613fb4565b9050919050565b6000613fbf82613fc6565b9050919050565b6000613fd182613f78565b9050919050565b82818337600083830152505050565b60005b83811015614005578082015181840152602081019050613fea565b83811115614014576000848401525b50505050565b6000601f19601f8301169050919050565b61403481613f20565b811461403f57600080fd5b50565b61404b81613f32565b811461405657600080fd5b50565b61406281613f3e565b811461406d57600080fd5b50565b61407981613f98565b811461408457600080fd5b5056fea265627a7a723058205245eea8e5b9f5171d276fee7eea35d87a096816459f33a3dddcd6e83e3bcf3f6c6578706572696d656e74616cf50037",
  "source": "pragma solidity ^0.5.0;\npragma experimental ABIEncoderV2;\n\n//defintiely stealing this from somewhere, but the site is called \"Pixel Junkie\"\n\nimport 'openzeppelin-solidity/contracts/token/ERC721/ERC721Full.sol';\nimport 'openzeppelin-solidity/contracts/token/ERC721/ERC721Mintable.sol';\n/* import './safemath.sol'; */\n\ncontract PixelCoin is ERC721Full, ERC721Mintable {\n\n    /* these functions were found from Dani's RainbowCoin tutorial */\n      address public owner;\n      uint public last_completed_migration;\n      constructor() ERC721Full(\"PixelCoin\", \"PixelCoin\") public {\n            owner = msg.sender;\n      }\n      modifier restricted() {\n        if (msg.sender == owner) _;\n      }\n\n      function setCompleted(uint completed) public restricted {\n        last_completed_migration = completed;\n      }\n\n      /* function upgrade(address new_address) public restricted {\n        Migrations upgraded = Migrations(new_address);\n        upgraded.setCompleted(last_completed_migration);\n      } */\n    /* ^Untested, foreign, scary. */\n\n    // From crytozombies:\n    /* function withdraw() external restricted {\n      address _owner = owner();\n      _owner.transfer(address(this).balance);\n    } */\n\n    using SafeMath for uint256;\n\n    //  LOOK THIS UP! STILL DON'T GET IT. SOMETHING ABOUT RECORDING A LOG W/O USING STORAGE\n    event NewPixelRevealed(uint16[2] _xy, string _picture);\n\n    uint sizeOfPicture = 600; // length and width of picture length x width.\n\n    // THE \"COINAGE\" --> PIXELS\n    struct Pixel {\n      uint16[2] xy; // the [x,y] coordinate of the pixel, acts as the pixel's _id\n      string picture; // which picture the pixel is part of.\n    }\n\n    // Picture-name array\n    // USED TO STORE ALL THE NAMES OF THE PICTURES\n    string[] public pictures;\n    uint public lengthOfPictureArray = 3; // length and width of picture length x width.\n\n    // picture's name to pixel-struct-array mapping\n    // USED TO STORE ALL THE AVAILABLE PIXEL COORDINATES ASSOCIATED WITH A GIVEN PICTURE\n    mapping (string => uint[]) public pictureToPixels;\n\n    // USED TO STORE THE OWNED PIXELS OF A GIVEN USER\n    mapping (address => Pixel[]) public ownerToPixels;\n\n    // key: an address\n    // value: [pixelsBoughtOnADay, aDay'sDate]\n    // USED TO CONTROL THE USERS' BUY RATE\n    mapping (address => uint[]) ownertoBoughtCountAndBoughtDay;\n\n    //**//NOT WRITTEN-----\n    //generate random pixel to buy from unowned pixels\n      /* function _generateRandomPixel(string memory _str) private view returns (uint[] memory) {\n        uint[] memory result;\n        uint rand1 = uint(keccak256(abi.encodePacked(_str)));\n        uint rand2 = uint(keccak256(abi.encodePacked(_str)));\n        result.push(rand1 % sizeOfPicture);\n        result.push(rand2 % sizeOfPicture);\n        return result;\n        } */\n    //**//NOT WRITTEN-----\n\n\n    function createPixel(uint16[2] memory _xy, string memory _picture) internal {\n        uint id = ownerToPixels[msg.sender].push(Pixel(_xy, _picture)).sub(1);\n        pictureToPixels[_picture].push(id);\n        /* ownerPixelCount[msg.sender].add(1); //SAFE MATH!!! */\n    //**//NOT WRITTEN-----\n        emit NewPixelRevealed(_xy, _picture); /// NOT IMPLEMENTED!!!!\n    //**//NOT WRITTEN-----\n    }\n\n    function buyUnownedPixel(string memory _picture) public payable {\n        // require that the amount of pixels bought today is less than 3\n        // or require that today's date is different than the date stored from the last buy.\n        require(ownertoBoughtCountAndBoughtDay[msg.sender][0] < 3 || ownertoBoughtCountAndBoughtDay[msg.sender][1] + 1 days < now);\n\n        // require that there are still pixels left to purchase from the given picture\n        require(pictureToPixels[_picture].length != 0);\n\n    //**//NOT WRITTEN-----\n        //NEED TO GENERATE A RANDOM PIXEL IN AN EFFICIENT WAY FROM THE PIXELS STILL AVAILABLE\n        // _generateRandomPixel(string _str)\n    //**//NOT WRITTEN-----\n\n        uint randCoordinate; // the coordinate randomly generated\n\n        for (uint i = 0; i < pictureToPixels[_picture].length; i++) {\n            // find the item in the array that is equal to the random coordinate generated.\n            if (pictureToPixels[_picture][i] == randCoordinate) {\n                // duplicate the last entry in the array into the index that stores the random coordinate\n                // pop the last entry.\n                pictureToPixels[_picture][i] = pictureToPixels[_picture][-i];\n                pictureToPixels[_picture].pop();\n            }\n        }\n\n        uint16[2] memory _xy = [300,300]; //for testing purposes\n\n        // create a new pixel and push it to the ownerToPixel array.\n        /* ownerToPixels[msg.sender].push(createPixel(_xy, _picture)); */\n\n        // if it hasn't been one day since the last purchase\n        if (ownertoBoughtCountAndBoughtDay[msg.sender][1] + 1 days < now){\n            //increment the amount of pixels bought for that day\n            ownertoBoughtCountAndBoughtDay[msg.sender][0].add(1); //SAFE MATH!!!\n        } else {\n            //else set the time to the new day\n            // might need to typecast the time by calling the 'uint32()' method.\n            ownertoBoughtCountAndBoughtDay[msg.sender][1] = now;\n            //and increment the number of purchases for that day to 1\n            ownertoBoughtCountAndBoughtDay[msg.sender][0] = 1;\n        }\n    }\n\n    /* mapping (string => uint[]) public pictureToPixels;\n\n    // USED TO STORE THE OWNED PIXELS OF A GIVEN USER\n    mapping (address => Pixel[]) public ownerToPixels; */\n\n    // return all pixels owned by the caller of the function\n    function showPixels() public view returns (Pixel[] memory){\n        Pixel[] memory ownersPixels;\n        // push the pixels into the array to be returned by the function\n        ownersPixels = ownerToPixels[msg.sender];\n        return ownersPixels;\n    }\n\n    // STRETCH CHALLENGE: offerToBuy function:: offer to buy the pixels from their owner\n    /* function offerToBuyOwnedPixel(address _buyer, address _seller, uint16[2] _xy, string _picture) external {\n\n    } */\n\n    // A function to add new names to the array of picture names\n    function addPictureToArrayOfPictures(string memory _name) public restricted {\n        bool unique = true;\n        string memory _test;\n        // checks to make sure the name doesn't already exist in the array\n        for (uint i = 0; i < lengthOfPictureArray; i++){\n            _test = pictures[i];\n            if (keccak256(abi.encodePacked(_test)) == keccak256(abi.encodePacked(_name))){\n            unique = false;\n        }\n        // if the name is unique,\n        require(unique == true);\n        // add it to the array.\n        pictures.push(_name);\n        lengthOfPictureArray.add(1);\n    }\n}\n}\n",
  "sourcePath": "/Users/jamesmccrory/Documents/dev/soloDappsProject/contracts/PixelCoin.sol",
  "compiler": {
    "name": "solc",
    "version": "0.5.8+commit.23d335f2.Emscripten.clang"
  },
  "schemaVersion": "3.0.11",
  "updatedAt": "2019-07-02T21:58:33.605Z",
  "devdoc": {
    "methods": {
      "approve(address,uint256)": {
        "details": "Approves another address to transfer the given token ID The zero address indicates there is no approved address. There can only be one approved address per token at a given time. Can only be called by the token owner or an approved operator.",
        "params": {
          "to": "address to be approved for the given token ID",
          "tokenId": "uint256 ID of the token to be approved"
        }
      },
      "balanceOf(address)": {
        "details": "Gets the balance of the specified address.",
        "params": {
          "owner": "address to query the balance of"
        },
        "return": "uint256 representing the amount owned by the passed address"
      },
      "getApproved(uint256)": {
        "details": "Gets the approved address for a token ID, or zero if no address set Reverts if the token ID does not exist.",
        "params": {
          "tokenId": "uint256 ID of the token to query the approval of"
        },
        "return": "address currently approved for the given token ID"
      },
      "isApprovedForAll(address,address)": {
        "details": "Tells whether an operator is approved by a given owner.",
        "params": {
          "operator": "operator address which you want to query the approval of",
          "owner": "owner address which you want to query the approval of"
        },
        "return": "bool whether the given operator is approved by the given owner"
      },
      "mint(address,uint256)": {
        "details": "Function to mint tokens.",
        "params": {
          "to": "The address that will receive the minted tokens.",
          "tokenId": "The token id to mint."
        },
        "return": "A boolean that indicates if the operation was successful."
      },
      "name()": {
        "details": "Gets the token name.",
        "return": "string representing the token name"
      },
      "ownerOf(uint256)": {
        "details": "Gets the owner of the specified token ID.",
        "params": {
          "tokenId": "uint256 ID of the token to query the owner of"
        },
        "return": "address currently marked as the owner of the given token ID"
      },
      "safeTransferFrom(address,address,uint256)": {
        "details": "Safely transfers the ownership of a given token ID to another address If the target address is a contract, it must implement `onERC721Received`, which is called upon a safe transfer, and return the magic value `bytes4(keccak256(\"onERC721Received(address,address,uint256,bytes)\"))`; otherwise, the transfer is reverted. Requires the msg.sender to be the owner, approved, or operator",
        "params": {
          "from": "current owner of the token",
          "to": "address to receive the ownership of the given token ID",
          "tokenId": "uint256 ID of the token to be transferred"
        }
      },
      "safeTransferFrom(address,address,uint256,bytes)": {
        "details": "Safely transfers the ownership of a given token ID to another address If the target address is a contract, it must implement `onERC721Received`, which is called upon a safe transfer, and return the magic value `bytes4(keccak256(\"onERC721Received(address,address,uint256,bytes)\"))`; otherwise, the transfer is reverted. Requires the msg.sender to be the owner, approved, or operator",
        "params": {
          "_data": "bytes data to send along with a safe transfer check",
          "from": "current owner of the token",
          "to": "address to receive the ownership of the given token ID",
          "tokenId": "uint256 ID of the token to be transferred"
        }
      },
      "setApprovalForAll(address,bool)": {
        "details": "Sets or unsets the approval of a given operator An operator is allowed to transfer all tokens of the sender on their behalf.",
        "params": {
          "approved": "representing the status of the approval to be set",
          "to": "operator address to set the approval"
        }
      },
      "supportsInterface(bytes4)": {
        "details": "See `IERC165.supportsInterface`.     * Time complexity O(1), guaranteed to always use less than 30 000 gas."
      },
      "symbol()": {
        "details": "Gets the token symbol.",
        "return": "string representing the token symbol"
      },
      "tokenByIndex(uint256)": {
        "details": "Gets the token ID at a given index of all the tokens in this contract Reverts if the index is greater or equal to the total number of tokens.",
        "params": {
          "index": "uint256 representing the index to be accessed of the tokens list"
        },
        "return": "uint256 token ID at the given index of the tokens list"
      },
      "tokenOfOwnerByIndex(address,uint256)": {
        "details": "Gets the token ID at a given index of the tokens list of the requested owner.",
        "params": {
          "index": "uint256 representing the index to be accessed of the requested tokens list",
          "owner": "address owning the tokens list to be accessed"
        },
        "return": "uint256 token ID at the given index of the tokens list owned by the requested address"
      },
      "tokenURI(uint256)": {
        "details": "Returns an URI for a given token ID. Throws if the token ID does not exist. May return an empty string.",
        "params": {
          "tokenId": "uint256 ID of the token to query"
        }
      },
      "totalSupply()": {
        "details": "Gets the total amount of tokens stored by the contract.",
        "return": "uint256 representing the total amount of tokens"
      },
      "transferFrom(address,address,uint256)": {
        "details": "Transfers the ownership of a given token ID to another address. Usage of this method is discouraged, use `safeTransferFrom` whenever possible. Requires the msg.sender to be the owner, approved, or operator.",
        "params": {
          "from": "current owner of the token",
          "to": "address to receive the ownership of the given token ID",
          "tokenId": "uint256 ID of the token to be transferred"
        }
      }
    }
  },
  "userdoc": {
    "methods": {}
  }
}